:020000040800F2
:10000000B84A002045010008271A00080116000818
:10001000231A00083D0F0008BD3E00080000000044
:100020000000000000000000000000005D2F00083C
:100030009910000800000000B701000871300008A6
:100040005F0100085F0100085F0100085F01000810
:100050005F0100085F0100085F0100085F01000800
:100060005F0100085F0100089B1000085F010008A5
:100070005F0100085F0100085F0100085F010008E0
:100080005F0100085F0100085F0100085F010008D0
:100090005F0100085F0100085F0100085F010008C0
:1000A0005F0100085F0100085F0100085F010008B0
:1000B0005F0100082D3300085F0100085F010008A0
:1000C0005F0100085F0100085F0100085F01000890
:1000D0005F010008B93B0008DD3B0008513C000807
:1000E0005F0100085F0100085F0100085F01000870
:1000F0005F0100085F0100085F0100085F01000860
:100100005F0100085F0100085F0100085F0100084F
:10011000713B0008953B00085F0100085F01000883
:100120005F0100085F0100085F0100085F0100082F
:10013000DFF80CD000F0CEFB00480047B5560008B1
:10014000B84A00200648804706480047FEE7FEE719
:10015000FEE7FEE7FEE7FEE7FEE7FEE7FEE7FEE777
:100160008D30000831010008EFF3108072B670473F
:1001700080F310887047204C204D25604FF000041C
:1001800084F309881E4C4FF0010525701D4C4FF07B
:100190008055256062B6FEE730B41A4C4FF08055AA
:1001A000256030BC704730B4164C4FF08055256048
:1001B00030BC704700BF72B6EFF3098028B1203819
:1001C00080E8F00F10490968086000B50F488047C3
:1001D0005DF804EB0E480F490A7802700A480E4990
:1001E0000A680260106890E8F00F203080F30988F8
:1001F0004EF0040E62B6704720ED00E00000FFFFF5
:100200004E00002004ED00E05400002021260008EC
:1002100043000020440000205C000020A0F14101C8
:10022000192900D82030704740EA01039B0703D00A
:1002300009E008C9121F08C0042AFAD203E011F825
:10024000013B00F8013B521EF9D27047D2B201E0E7
:1002500000F8012B491EFBD270470022F6E710B5CB
:1002600013460A4604461946FFF7F0FF204610BD24
:10027000CAB2401E10F8011F8A4202D00029F9D1EB
:1002800000207047421C10F8011B0029FBD1801A86
:10029000704710B5002200E0521C835C8C5CA342C6
:1002A00001D1002BF8D1D8B2E1B2401A10BD30B55F
:1002B00004460020034600E05B1C934203D2E05C4E
:1002C000CD5C401BF8D030BD034611F8012B00F87F
:1002D000012B002AF9D11846704730B50546002099
:1002E000034600E05B1C934205D2EC5CC85C201A1C
:1002F00001D1002CF6D130BD2DE9FE4F804681EAB8
:100300000300C00F0C46009021F0004123F000458F
:10031000B8EB0200A94105D24046214690461C4652
:100320000B46024623F00040104347D0270DC7F389
:100330000A00C3F30A510290401A019040286BDA78
:10034000C3F3130040F4801B0098924620B10023B1
:10035000D2EB030A63EB0B0B01985946C0F1400244
:10036000504600F08AF906460D4650465946019A15
:1003700000F0A2F910EB08006141002487EA115255
:1003800084EAE7731A4340D0009A62B3019A012AC3
:100390004FEA075215DC001B61EB02014FF00042EF
:1003A00002EA0752CDE90042001C41F580113246B5
:1003B0002B4600F0A2F903B0BDE8F08F404621467D
:1003C000F9E7001B61EB0201001C41F580130018E6
:1003D0005B412018A2F5001747EB030140EAD570F6
:1003E000B6196D4111E06D084FEA360645EAC07551
:1003F0004FEA0752001B61EB0201001C41F580111E
:1004000049084FEA30000019514132462B4603B0EB
:10041000BDE8F04F00F062B90098012240000023CF
:10042000D0EB020263EBE073009821464FEAE074E0
:10043000B8EB000061EB0401E9E783F000435BE700
:1004400081F0004158E72DE9FE4F81EA030404F0F2
:10045000004421F0004100944FF0000B23F00043D2
:1004600050EA01045ED052EA03045BD0C3F30A549D
:10047000C1F30A552C44A4F2F3340194A0FB0254B6
:10048000C1F3130141F48011C3F3130343F4801348
:1004900001FB024400FB034E840A970A44EA81549C
:1004A00047EA8357A4FB076802958D0A05FB078579
:1004B0004FEA932C04FB0C542705029D4FEA065883
:1004C00047EA1637B5EB08056EEB070C870E920E60
:1004D00047EA811742EA8312A7FB0201B6EB0B0140
:1004E00064EB00042B0D43EA0C335E1844EB1C5004
:1004F000DA465146E7FB0201C5F313044FEA0B331A
:1005000043EA14534FEA0432019C43EA0603A4F180
:100510000C040294009CCDE900B400F0EEF803B0A6
:10052000BDE8F08F00200146F9E70EB5C10F80EA63
:10053000E0700844CA07002140F233438DE80E0002
:100540000A460B4600F0D9F803B000BD70B5C1F300
:100550000A5201F000450024C1F3130140F2FF33B9
:1005600041F480119A4201DA002070BD40F2334319
:100570009A42A2F2334203DC524200F08DF800E0CE
:1005800090402C43F1D0404270BD000030B5041EB5
:1005900071F1000404DB4FF00044404264EB0101C0
:1005A000141E73F1000405DB1C464FF00043524259
:1005B00063EB04038B4208BF824230BD30B5041E9A
:1005C00071F1000404DB4FF00044404264EB010190
:1005D000141E73F1000405DB1C464FF00043524229
:1005E00063EB0403994208BF904230BD30B50B461F
:1005F000014600202022012409E021FA02F59D4253
:1006000005D303FA02F5491B04FA02F52844151E26
:10061000A2F10102F1DC30BD2DE9F05F05460020BA
:1006200092469B4688460646814640241BE0284663
:1006300041464746224600F02FF853465A46C01A14
:10064000914110D311461846224600F016F82D1A93
:1006500067EB01084F4622460120002100F00DF80B
:1006600017EB00094E41201EA4F10104DFDC4846CF
:1006700031462A464346BDE8F09F202A04DB203A53
:1006800000FA02F1002070479140C2F1200320FAE5
:1006900003F3194390407047202A04DB203A21FAE3
:1006A00002F00021704721FA02F3D040C2F120028B
:1006B0009140084319467047202A06DBCB17203AA1
:1006C00041FA02F043EAE07306E041FA02F3D04057
:1006D000C2F12002914008431946704710B5141E1C
:1006E00073F1000408DA401C41F1000192185B41EB
:1006F0001A4301D120F0010010BD2DE9F04D9246C2
:100700009B4611B1B1FA81F202E0B0FA80F22032D8
:100710009046FFF7B2FF04460F4640EA0A0041EA5E
:100720000B0153465A46084313D0114653EA0100C1
:1007300019D0C8F140025046FFF7AEFF05460E46FD
:10074000504659464246FFF798FF084305D001201E
:1007500004E020463946BDE8F08D0020054346EA16
:10076000E0762C4337430A986305E40AA0EB0800BF
:100770000022FD0A44EA47540A3002D5002001460F
:10078000E9E7010510196941DDE9084500196941EA
:10079000BDE8F04DA2E72DE9F04D81EA030404F035
:1007A000004B21F0004514464FF0000A23F00041B1
:1007B00050EA050220D054EA01021DD0C5F30A57C1
:1007C0000246C5F31303C1F31300C1F30A5640F404
:1007D000801543F48013A7EB0608101BD64608F2D9
:1007E000FD3873EB050002D308F1010801E092180F
:1007F0005B41B8F1000F03DA00200146BDE8F08D3F
:1008000000204FF48011064684460EE0171B73EB60
:10081000050705D3121B63EB050306434CEA010CE5
:1008200049084FEA300092185B4150EA0107EDD1C8
:1008300052EA030012D082EA040083EA0501084369
:1008400005D0101BAB4106D20122002306E0002296
:100850004FF0004302E06FF0010253101AEB060064
:100860004CEB085110EB0A0041EB0B01BDE8F04DD9
:10087000FFF734BF70B521F0004303430CD0C1F340
:100880000A550024D5EB040564EB0403D617AD1A12
:10089000B34102DB0020014670BD201841EB02513C
:1008A00070BDC1F30A52C1F3130140F2FF3341F4AA
:1008B00080119A4202DA00200146704740F2334329
:1008C0009A42A2F2334202DC5242FFF7E5BEFFF742
:1008D000D4BE0000064C074D06E0E06840F001037E
:1008E00094E8070098471034AC42F6D3FFF724FC95
:1008F00028810008488100082DE9F04D00231A46A0
:100900001B1A8A4103DB00200146BDE8F08DC1F3CC
:100910000A52C1F3130141F480154FF0000BD107C7
:1009200002D100186D41521E0027044640F2FF110B
:10093000384601EB620A3E468046024600204FF4EC
:100940008011FFF7A9FEC2197141BB1846EB0100E7
:10095000B4EB030C75EB000C04D3E41A65EB000553
:1009600017460E46241908F101006D4180463428CF
:10097000E3DDF91946EB0600091BA84103D24FF04D
:10098000FF32134601E0002213461BEB070046EB43
:100990000A51BDE8F04DFFF7A1BE70B58C1810F8F4
:1009A000015B15F0070301D110F8013B2A1106D1B4
:1009B00010F8012B03E010F8016B01F8016B5B1ECE
:1009C000F9D12B0705D40023521E0DD401F8013BA9
:1009D000FAE710F8013BCB1A921C03E013F8015B15
:1009E00001F8015B521EF9D5A142D8D3002070BD99
:1009F00030B58DB01422274906A8FFF715FC0CA9C5
:100A000043F6FF7000F018F9044614B120460DB00B
:100A100030BD9DF83000C0F1FF05294643F6FF7058
:100A200000F014FA04460CB12046F0E70BA943F697
:100A3000FF7000F001F904460CB12046E7E79DF88D
:100A40002C00854206D09DF8301043F6FF7000F070
:100A5000FDF904460CB12046D9E70F2206A943F65A
:100A6000F07000F04FF904460CB12046CFE70F229A
:100A700001A943F6F07000F031F804460CB12046AD
:100A8000C5E701A906A8FFF704FC08B10220BEE7EC
:100A90000020BCE77C80000810B500F025FE084966
:100AA000084806F02FFE0849084806F019FE084AD3
:100AB0000849094806F0FAFDFFF79AFF10BD00004B
:100AC00045180008F917000889170008F5180008EC
:100AD0003917000899160008911800082DE9F74FFA
:100AE00084B0814616464FF0000809EB0600B0F5C9
:100AF000804F03DB032007B0BDE8F08F4C46204653
:100B0000C11700EB9161C1F38F1102910298401C53
:100B100085B2002000EB851087B2381BA6EB0801D8
:100B2000884203DA381B1FFA80FB03E0A6EB0800BB
:100B30001FFA80FB79E03F49486880473D48C1681B
:100B4000A02088473B49486980478246BAF1000F98
:100B500001D00F20CFE72012364AD16888473549A7
:100B6000486980478246BAF1000F01D00F20C2E7E2
:100B7000E21704EB12621212A4EB0222D0B22D4A49
:100B80000194D16888472B49486980478246BAF169
:100B9000000F01D00F20AEE726494868804725485E
:100BA000C168A12088472349486980478246BAF135
:100BB000000F01D00F209EE7002003900DE01D489C
:100BC00001690120884741464A1C1FFA82F8059AAC
:100BD00050540398401C80B20390ABF1010003997C
:100BE0008842ECDC134801690020884741464A1CD2
:100BF0001FFA82F8059A50540E49886880473C468F
:100C00000295029D681C85B2002000EB851087B21A
:100C1000381BA6EB0801884203DA381B1FFA80FB59
:100C200003E0A6EB08001FFA80FBBBF1000F82D1A6
:100C3000002060E7941F00202DE9F04104460F4694
:100C40002149486880472048C168A02088471E493C
:100C500048698047054615B10F20BDE8F081201294
:100C6000194AD168884718494869804705460DB137
:100C70000F20F2E72646E21704EB12621212A4EBF1
:100C80000222D0B2104AD16888470F49486980478C
:100C900005460DB10F20E0E70B49486880470A4838
:100CA000C168A120884708494869804705460DB1B9
:100CB0000F20D2E7044801690020884738700249B4
:100CC000886880470020C8E7941F00202DE9F04184
:100CD00004460E46154600276019B0F5807F02DDF8
:100CE0000420BDE8F0814FF6FF7101EA8512002172
:100CF00001EB841188B23146FFF7F0FE0746384613
:100D0000EFE700002DE9F74F84B0044616464FF098
:100D10000009A019B0F5804F03DB032007B0BDE840
:100D2000F08F27463C463846C11700EB9161C1F36E
:100D30008F1102910298401C85B2002000EB8510B3
:100D40001FFA80F8A8EB0400A6EB0901884204DA38
:100D5000A8EB07001FFA80FB03E0A6EB09001FFACF
:100D600080FB6BE03849486880473748C168A0205D
:100D700088473549486980478246BAF1000F01D05B
:100D80000F20CBE72012304AD16888472E494869A6
:100D900080478246BAF1000F01D00F20BEE7E2176C
:100DA00004EB12621212A4EB0222D0B2264A019482
:100DB000D16888472449486980478246BAF1000FC4
:100DC00001D00F20AAE70020039015E04A46531CEB
:100DD0001FFA83F9059B985C1B4AD16888471A491A
:100DE000486980478246BAF1000F01D00F2095E78D
:100DF0000398401C80B2039003985845E6DB1249E3
:100E0000886880470A2003F0F7FF47460295029D55
:100E1000681C85B2002000EB85101FFA80F8A8EB53
:100E20000700A6EB0901884204DAA8EB07001FFAC5
:100E300080FB03E0A6EB09001FFA80FBBBF1000F6B
:100E400090D100206AE70000941F00202DE9F041B6
:100E500004460F461F49486880471E48C168A020C5
:100E600088471C4948698047054615B10F20BDE8F1
:100E7000F0812012174AD16888471649486980478F
:100E800005460DB10F20F2E72646E21704EB126289
:100E90001212A4EB0222D0B20E4AD16888470D4943
:100EA0004869804705460DB10F20E0E70948C16851
:100EB0003846884707494869804705460DB10F20E5
:100EC000D5E70449886880470A2003F095FF002091
:100ED000CDE70000941F00202DE9F04104460E46A6
:100EE000154600276019B0F5807F02DD0420BDE8BB
:100EF000F0814FF6FF7101EA8512002101EB8411A8
:100F000088B23146FFF7FEFE07463846EFE700009D
:100F100010B505F049F906F049FE05480178054885
:100F200004F01EF8044614B900200349086010BDFF
:100F30007C000020041F00208801214200BFFEE742
:100F40002DE9F05F0446884691469A4614B1B8F1FF
:100F5000000F02D11320BDE8F09F94F803B0267A69
:100F6000E7883FE03946204604F08EFB08B10120B7
:100F7000F1E7002530E004F1280105FB061004220A
:100F80004146FFF794F928BBA9F8007005FB06F06D
:100F9000AAF8000005FB06F0001D04F128010A5C18
:100FA00005FB06F0001D0844407842EA00210A983B
:100FB000018005FB06F0801D04F128010A5C05FB99
:100FC00006F0801D0844407842EA00210B98018019
:100FD0000020C0E7681CC5B29BFBF6F0A842CADC43
:100FE000781C87B2E089B842BCDC0520B3E72DE964
:100FF000F04704460E4615461F46DDE9088931468E
:10100000204604F041FB10B10120BDE8F08704F157
:10101000280028443968016004F12800284480F839
:1010200004804FEA282104F128002844417104F18A
:101030002800284480F806904FEA292104F128006E
:101040002844C17120780123324604F1280103F0BD
:1010500068FF08B10120D8E70020D6E70EB54FF4AD
:1010600016500949086000204FF48071074ACDE905
:10107000002102900448002205490368054802F057
:10108000F6FE00200EBD000078000020041E0020A7
:10109000C8000020013C0008704710B50024FFF78D
:1010A00063F80446102000F011F820B1102000F081
:1010B00007F800F0F9FC2046FFF75AF810BD0000D1
:1010C00001490860704700001404014001460020F7
:1010D0000022074B1B6803EA0102054B14331B680F
:1010E0000B4013B10AB1012000E00020704700005E
:1010F000000401402DE9F04704460D46174694F8D8
:101100000380267C98FBF6F095FBF0F0E18908441B
:101110001FFA80FA98FBF6F095FBF0F100FB1150F6
:1011200070431FFA80F95146204604F0ADFA10B121
:101130000120BDE8F08704F1280010F809104844A8
:10114000407841EA002038800020F2E72DE9F0479E
:1011500004460D46164694F80380277C98FBF7F06A
:1011600095FBF0F0E18908441FFA80F998FBF7F04D
:1011700095FBF0F100FB115078431FFA80FA4946C5
:10118000204604F081FA10B10120BDE8F08704F197
:10119000280000F80A603112504441702078012381
:1011A0004A4604F1280103F0BCFE08B10120ECE737
:1011B0000020EAE72DE9F041024600250026002044
:1011C00000230024002791F803C00CF00F0591F8CC
:1011D00003C00CF0100CBCF1000F03D091F802C05A
:1011E0004CEA050591F800C0BCF1000F31D014683D
:1011F00000202BE04FF0010C0CFA00F3B1F800C016
:101200000CEA03069E4220D183004FF00F0C0CFA2B
:1012100003F7BC4305FA03FC4CEA040491F803C04D
:10122000BCF1280F06D14FF0010C0CFA00FCC2F8FB
:1012300014C00AE091F803C0BCF1480F05D14FF08B
:10124000010C0CFA00FCC2F810C0401C0828D1D3D5
:101250001460B1F800C0BCF1FF0F34DD5468002009
:101260002EE000F1080C4FF0010808FA0CF3B1F879
:1012700000C00CEA03069E4221D183004FF00F0C00
:101280000CFA03F7BC4305FA03FC4CEA040491F89A
:1012900003C0BCF1280F05D100F1080C08FA0CF8C6
:1012A000C2F8148091F803C0BCF1480F07D100F1D7
:1012B000080C4FF0010808FA0CF8C2F81080401C26
:1012C0000828CED35460BDE8F0810000F0B50A468E
:1012D000002300240021002500F00046B6F1004F55
:1012E00002D11D4EF16901E01B4E7168C0F3034548
:1012F00083B200F44016B6F5401F08D121F07061AA
:10130000154E766826F07066134F7E6012E000F48A
:101310008016B6F5801F06D1032606FA05F4A14310
:1013200041F0706106E0460D360103FA06F6B1435E
:1013300041F0706122B1460D360103FA06F63143E1
:1013400000F00046B6F1004F02D1034EF16101E01A
:10135000014E7160F0BD0000000001404161704726
:101360000161704730B504460D46EAB221464FF69A
:10137000FF7000F001F830BD30B50CE0030A4FF605
:10138000FF7404EA002011F8014B5C40E4B2054D03
:1013900035F8144060401400A2F10105EAB2EDD125
:1013A00030BD00007C7E00080120014908607047C4
:1013B000BC8121420020014908607047BC81214264
:1013C00001480068C0B2704730812142014908607D
:1013D00070470000B081214208B50121082001F0CA
:1013E00043FD10208DF8030003208DF802004FF418
:1013F0008050ADF8000069460D48FFF7DBFE4FF462
:101400000050ADF8000069460948FFF7D3FE4FF4DD
:101410008040ADF8000069460548FFF7CBFE4FF469
:101420000040ADF8000069460148FFF7C3FE08BD63
:10143000000C01401CB5FFF7CFFF0F490F4806F025
:1014400075F90F490F4806F0B9F90F490F4806F032
:10145000A1F90F490F4806F07DF90F4806F08EF903
:10146000E320032129230122CDE9001018210520C2
:1014700000F02CF81CBD0000A9130008B5130008EB
:10148000C1140008B5140008A91400089D14000830
:10149000CD130008C1130008F94D000801200149CF
:1014A00008607047B88121420020014908607047F8
:1014B000B88121420120014908607047B48121426E
:1014C0000020014908607047B48121420FB438B54B
:1014D00005A800900E49486880470321802000F04D
:1014E00019F8002509E0009810F8041BCCB2009010
:1014F0000921204600F00EF86D1C04988542F2DBAD
:101500000349886880470020009038BC5DF814FBD0
:101510006C1F00202DE9F04104460D4626460027A9
:1015200021E01349086980471148416A0220884731
:1015300006F0800020B10E48016A0120884703E0D0
:101540000B48016A002088470948416A0220884701
:101550000749C86880470648416A022088477006E4
:10156000060E781CC7B2AF42DBDBBDE8F08100009D
:101570006C1F00202DE9F04104460D462646002749
:1015800020E01249086980471048416A02208847D4
:1015900006F0010020B10D48016A0120884703E0F0
:1015A0000A48016A002088470848416A02208847A3
:1015B0000649C86880470548416A02208847761076
:1015C000781CC7B2AF42DCDBBDE8F0816C1F0020A5
:1015D00010B504460949486880470321A020FFF759
:1015E00099FF06211420FFF795FF04212046FFF7FD
:1015F000C1FF02498868804710BD00006C1F0020B1
:1016000000BFFEE7F0B505460B4614462946002606
:101610000027002226E00878392808DD08784628C7
:1016200002DD0878662802DC0878373801E008789F
:101630003038C6B2491C0878392808DD08784628B1
:1016400002DD0878662802DC0878373801E008787F
:101650003038C7B206F00F0C38466CF31F10A05498
:10166000491C521CB2EB530FD5D303F0010070B1EB
:101670000878392808DD0878462802DD08786628C9
:1016800002DC0878373801E008783038A05403F0DD
:10169000010000EB5300F0BD10B500200F490860B9
:1016A0000F48006820F0F0000D4908600846006807
:1016B00040F03000086000200A49C1F8A40102206F
:1016C00003F0D0FB012005490860022003F0CAFBAB
:1016D00000200449C1F8A00110BD0000A0812142F2
:1016E000040C01400080214208B50121082001F0CE
:1016F000BBFB4FF48070ADF8000010208DF80300A4
:1017000003208DF8020069460A48FFF753FD4FF4A5
:1017100080710848FFF724FE4FF40070ADF8000018
:1017200069460448FFF746FD4FF400710148FFF792
:1017300017FE08BD000C014010B500200F490860DD
:101740000F48006820F0F0000D4908600846006866
:1017500040F03000086001200A49C1F8A4010220CD
:1017600003F080FB012005490860022003F07AFBAA
:1017700000200449C1F8A00110BD0000A081214251
:10178000040C01400080214270B505460024174832
:10179000006820F0F000154908600846006840F035
:1017A00080000860002616E0002011490860022031
:1017B00003F058FB01200F49C1F8A0016006040E98
:1017C0000B487C38006808B1601CC4B2012003F0EB
:1017D00049FB701CC6B2082EE6DB15B9FFF7ACFF5B
:1017E00001E0FFF759FF204670BD0000040C0140E6
:1017F000A08121420080214210B50F48006820F0EE
:10180000F0000D4908600846006840F030000860AC
:1018100001200A4908600A49C1F8A001042003F028
:1018200021FB002005490860042003F01BFB002079
:101830000349C1F8A00110BD040C0140A48121425C
:101840000080214210B50F48006820F0F0000D49DB
:1018500008600846006840F03000086000200A492F
:1018600008600A49C1F8A401042003F0FBFA012032
:10187000054908600549C1F8A401042003F0F2FA03
:1018800010BD0000040C0140A081214200802142D3
:1018900010B500241448006820F0F00012490860D8
:1018A0000846006840F08000086001200F49086089
:1018B00003F0D8FA01200E49C1F8A00103F0D2FAD2
:1018C00007E0601CC4B2FA2C03DDFFF7BBFF012068
:1018D00010BD0648803800680028F2D10349091F6E
:1018E000086000BFF4E70000040C0140A48121421D
:1018F0000080214270B504461848006820F0F000CE
:10190000164908600846006840F030000860002072
:101910001349086000251EE0E00920B101201049AC
:10192000091D086003E000200D49091D08606006DC
:10193000040E022003F096FA0120094908600220F3
:1019400003F090FA00200749C1F8A001022003F03B
:1019500089FA681CC5B2082DDEDB70BD040C01409D
:10196000A08121420080214208B50121042001F01C
:101970007BFA0220ADF8000010208DF80300032050
:101980008DF8020069460E48FFF714FC012104207F
:1019900001F06AFA0420ADF8000010208DF8030071
:1019A00003208DF8020069460548FFF703FC022179
:1019B0000348FFF7D5FC04210148FFF7D1FC08BD1F
:1019C0000008014010B5FFF7CFFF10BD2DE9F04131
:1019D00004460D4616461F464FF000084146204675
:1019E00003F052FE10B10120BDE8F081352005550D
:1019F000291284F836103C200655311284F83D1027
:101A000043200755391284F84410207801234246B8
:101A100004F1280103F085FA08B10120E4E7002071
:101A2000E2E700BFFEE770477FB500251BA103C9B1
:101A3000CDE900011B480078042807D01948007838
:101A4000052803D017480078062803D10325284627
:101A500004B070BD05226946302000F003FB05226A
:101A600002A9102000F05CF900240DE002A8005D3E
:101A70001DF80410884205D000200A49087002258C
:101A80002846E5E7601CC4B2052CEFDB054800786A
:101A900010B90120034908702846D9E7A5B6C7D870
:101AA000E90000002C01002070B50025072000F09F
:101AB0005DF904462146272000F0FCFA04F04000BE
:101AC000E8B120214548FEF7C8FB602000F04EF940
:101AD00042499C3981F89B00084690F89B209C3134
:101AE000612000F01DF93D489C3890F89B10D0F81B
:101AF000BC209C309047FF21E22000F0DBFA04F08C
:101B0000200020B3042035499C390870084690F81D
:101B10009300002814DC48224C31A1F11C0001F094
:101B20006FF9BF2804D1012000F0B6F805460EE099
:101B300000F052FA0546052028499C39087006E055
:101B400000F04AFA0546052024499C39087004F043
:101B50001000E8B1042021499C39087048211F4831
:101B60005038FEF77AFB48221C495039A1F11C007D
:101B700001F046F9BF2804D1012000F08DF8054698
:101B800006E000F029FA0546052014499C39087042
:101B900012489C3890F89A0001281CD100200F4967
:101BA0009C3981F89A0008460078052813D048220D
:101BB0004C31A1F11C0001F023F9BF2804D1012010
:101BC00000F06AF8054606E000F006FA0546052032
:101BD00002499C390870284670BD0000C8010020E9
:101BE00070B5044600252B48007858B12948007884
:101BF000012807D027480078022803D0254800781C
:101C0000062805D100F0F0F8054645B1284670BD1C
:101C100020480078052802D106252846F7E71D4907
:101C2000C868804705221B499431302000F01AFA19
:101C3000012C16D10522174994312A2000F012FAFE
:101C40000121222000F036FA0121212000F032FA91
:101C500004213D2000F02EFA01213C2000F02AFA58
:101C600003E001213D2000F025FA1521242000F099
:101C700021FA0E21202000F01DFAFF21E12000F0C2
:101C800019FA0449886880470420024908702846E8
:101C9000BDE700002C01002070B5044600251F4858
:101CA0000078032805D000F09FF805460DB12846BE
:101CB00070BD072000F05AF806463146272000F094
:101CC000F9F91649C868804705221449491C2A2099
:101CD00000F0C8F90121222000F0ECF9012C0BD111
:101CE0000121212000F0E6F904213D2000F0E2F975
:101CF00001213C2000F0DEF92021312000F0DAF94A
:101D00000F21202000F0D6F9FF21E22000F0D2F9C7
:101D10000249886880472846CAE700002C01002055
:101D20002DE9F04107460D4616460F4908698047E0
:101D30000D49086A80470C49886980470A48816ACA
:101D400038468847002405E00749486A80472855F7
:101D5000601CC4B2B442F7DB0349C869804702493A
:101D600048698047BDE8F0812C01002070B5044629
:101D70000C49086980470B49086A80470949886906
:101D800080470848816A204688470649486A804754
:101D900005460449C8698047024948698047284682
:101DA00070BD00002C01002010B500240D48007803
:101DB00028B9FFF739FE04465CB1204610BD09483A
:101DC0000078042805D100F00FF804460CB1204635
:101DD000F4E70821202000F06DF902200149087085
:101DE0002046EBE72C01002070B500242448007841
:101DF00038B123480078012803D021480078022810
:101E00000AD1FFF7D1FF04460CB1204670BD0A216C
:101E1000202000F04FF912E019480078042803D080
:101E200017480078062803D11549C868804706E09E
:101E300013480078052802D106242046E6E7FF2152
:101E4000E12000F037F9FF21E22000F033F907200C
:101E5000FFF78CFF05462946272000F02BF90321C8
:101E6000232000F027F92821252000F023F90F2155
:101E7000262000F01FF90320014908702046C5E71D
:101E80002C0100202DE9F04104460D4616461F4660
:101E90004FF000081748007804280BD10522294686
:101EA00014489430FEF703FA20B9124890F89900CC
:101EB000A04212D00F48803029684161297901760B
:101EC000803880F899402046FFF78AFE8046B8F1B6
:101ED000000F02D04046BDE8F0810649C86880473F
:101EE0003A463146A02000F0BDF802498868804794
:101EF0004046F0E72C0100202DE9F04194B0074660
:101F00000D4616461C464FF000080DB106B114B937
:101F10004FF001085AE056E0402C2CDD482102A881
:101F2000FEF79BF98DF808702868CDF8090028792C
:101F30008DF80D00402231460DF10E00FEF774F9C8
:101F400040208DF84F0000200123482202A9009074
:101F5000204800F01AFF10B14FF0010835E0A4F15D
:101F60004000C4B2403601201A49303981F89A0045
:101F7000C86A804727E0482102A8FEF76EF98DF86D
:101F800008702868CDF8090028798DF80D002246E0
:101F900031460DF10E00FEF747F98DF84F40002055
:101FA0000123482202A900900A4800F0EEFE10B179
:101FB0004FF0010809E0002401200649303981F87A
:101FC0009A00C86A8047002CA6DC00BF404614B0C7
:101FD000BDE8F0815C01002070B50024204890F835
:101FE0009300002817DD1E4890F89300202812DC8B
:101FF0001B4991F8933091F8925052316A18523936
:1020000091F84C004D31FFF73DFF28BB00211448EB
:1020100080F8931022E0124890F8930020281CDDED
:102020000F4991F8923052315A18523991F84C00B8
:1020300020234D31FFF726FF70B9094890F893002F
:102040002038C1B2064880F8931090F892002030F2
:10205000C1B2034880F8921000E00124204670BD10
:102060002C0100202DE9F04107460C461546104989
:10207000086980470E49086A80470D49886980478A
:102080000B48816A38468847002606E014F8010BA1
:10209000074A916A8847701CC6B2AE42F6DB044913
:1020A000C8698047024948698047BDE8F08100005F
:1020B0002C01002070B505460C460C490869804784
:1020C0000A49086A80470949886980470748816A40
:1020D000284688470548816A204688470349C869D9
:1020E000804702494869804770BD00002C010020EC
:1020F00070B5002100230F22C47804B3154C246866
:1021000004F4E064C4F5E064210AC1F10403CA40A8
:10211000447804FA03F184781440214309010E4CF9
:102120000678A155047804F01F050124AC40057819
:102130006D11AD0005F1E025C5F8004109E0047816
:1021400004F01F050124AC40044D0678761145F8D3
:10215000264070BD0CED00E000E400E080E100E00E
:1021600002490143024A1160704700000000FA056D
:102170000CED00E010B500F013F800F08DFB00F05E
:10218000B5FB00F0D5FB00F05DFB00F02FFB00F08D
:1021900045FC00F005FC00F01DFC00F002F810BD4D
:1021A0007047704706480078012808D10548007834
:1021B000FF2804D203480078401C02490870704789
:1021C0004E0000204100002010B500241A4800787D
:1021D000012830D1FDF7C8FF04461848007820B127
:1021E00016480078401E1549087014480078F8B960
:1021F00013480078E0B900F073FC124812490978DE
:1022000050F82100114908600F48007810490978FA
:1022100088420DD00D480068406B401C0B4909688E
:1022200048630C480068401C0A490860FDF7BBFF82
:102230002046FDF79DFF10BD4E000020410000200C
:10224000420000209C070020440000205C00002089
:10225000430000202800002010B500240B4800781F
:10226000012811D1FDF780FF04460948007840B9E4
:1022700008480078FF2804D206480078401C054929
:1022800008702046FDF774FF10BD00004E000020CE
:10229000410000204200002010B5002413480078BF
:1022A000012821D1FDF760FF044611480078C0B134
:1022B0000F480078401E0E4908700846007860B943
:1022C0000C48007828B92046FDF752FF00F0CEFBFD
:1022D0000AE02046FDF74CFF06E02046FDF748FFE8
:1022E00002E02046FDF744FF10BD00004E00002034
:1022F000420000204100002010B50B48007890B942
:1023000000F0EEFB094800780949087009480749C0
:10231000097850F821000849086008460068074914
:102320000860FDF728FF10BD4E000020440000208B
:10233000430000209C0700205C0000205400002087
:1023400010B50024022000F06DF9FDF70DFF0446E2
:1023500000200B4908602046FDF70AFF142000F01A
:1023600061F9FDF701FF044605480068054908606A
:102370000120054908702046FDF7FAFE10BD000057
:10238000500000203800002040000020704700006E
:102390002DE9F04F85B081468A4693461C46DDE91B
:1023A0000F78129D00200390FDF7DEFE0390234876
:1023B000007830B10398FDF7DBFE3C2005B0BDE8A6
:1023C000F08F1F4850F8240088BB01201C4941F8B9
:1023D00024000398FDF7CCFE2A464146384600F01B
:1023E0009BFC2B465A465146484600F077F804902D
:1023F0001198CDE9008002953A4620460E9B04993B
:1024000000F084FB064636B90E48007801280CD14E
:1024100000F02CFB09E0FDF7A7FE0390002008491F
:1024200041F824000398FDF7A3FE3046C6E7FFE716
:102430000398FDF79DFE2820C0E700004100002022
:102440009C0700204E000020704770477047000036
:102450002DE9F04707460D464FF0000A002028609E
:102460006860FDF781FE8246FF2F03D1194800689E
:1024700090F82E70184850F827402CB95046FDF7B8
:1024800077FE4320BDE8F087012C04D15046FDF7CC
:102490006FFE4320F6E7207C00F0010020B9504693
:1024A000FDF766FE4520EDE70026D4F80C90D4F841
:1024B00008805046FDF75CFE00E0761C58F8041BCF
:1024C0000029FAD0B0002860A9EB060080006860FF
:1024D0000020D7E7540000209C07002070B5044678
:1024E00010464FF080750560051F28462C606FF080
:1024F0000106051F28462E604FF01236051F28469C
:102500002E604FF00336051F28462E604FF002362E
:10251000051F28462E607610051F28462E60051FD1
:10252000284629604FF01136051F28462E604FF0CF
:102530001036051F28462E604FF00936051F284625
:102540002E604FF00836051F28462E604FF00736E4
:10255000051F28462E604FF00636051F28462E60C0
:102560004FF00536051F28462E604FF00436051F34
:1025700028462E6070BD00002DE9F04105464FF061
:102580000008FDF7F1FD8046FF2D05D120480068C9
:1025900090F82E50012608E01D48006890F82E00A3
:1025A000A84201D1012600E000261A4850F8254033
:1025B0002CB94046FDF7DCFD4820BDE8F081012C38
:1025C00004D14046FDF7D4FD4320F6E794F830707F
:1025D0001148C05D94F8311088430F49C85508462A
:1025E000C05D30B994F832100C48007888430B492C
:1025F000087094F82C0040F0080084F82C00404645
:10260000FDF7B6FD012E01D100F030FA0020D4E72D
:10261000540000209C0700204600002045000020B8
:102620007047000070B5054600261748007800B1D5
:1026300070BD1648007800B1FAE71DB3FDF794FDB0
:1026400006461348006890F830401248005D104973
:10265000096891F8311088430E4908550846005D15
:1026600040B90B48006890F832100B480078884356
:10267000094908700648006885623046FDF778FD14
:1026800000F0F4F900BFD3E7410000204200002031
:102690005400002046000020450000202DE9F041B4
:1026A00004460D4616461F461248007810B15520C4
:1026B000BDE8F0811048007808B13220F8E7B81C76
:1026C000C82148434FF47A71B0FBF1F14FF46160D7
:1026D0006043C5EB051200EB8200304400EBC00202
:1026E00002EB001001EBC0084046FFF79BFF002003
:1026F000DEE70000410000204200002070B5002607
:1027000000F072F8FDF730FD064631480068401CC5
:102710002F4908603046FDF72BFD2E480078012830
:1027200053D12D48007820B1012804D0022809D1C6
:1027300003E001250BE0002509E0012501202649E1
:10274000087004E0012500202349087000BF00BF85
:1027500005B970BD2148046833E0FDF705FD064664
:10276000A06A50B3A06A401EA062A06A28BB94F879
:102770002C0000F0370040B114F82C0F00F0C80016
:102780002070012060702C3C02E0002084F82D00B5
:1027900094F82C0000F0080078B93034A078104983
:1027A000097808430E49087020780E49085C617862
:1027B000084314F830190B4A505464693046FDF749
:1027C000D7FC94F82E003F28C7D100BFC1E7000016
:1027D0006C0000204E0000206400002060000020FB
:1027E0004500002046000020704700002DE9F04120
:1027F0005021114800F008F900250DE0681C86B250
:102800000D4800EB051400EB0617002020706760F0
:102810000AA0E060681C85B2042DEFD3064800EBE7
:10282000051400202070606004A0E06002480449A4
:102830000860BDE8F08100004C0300203F0000006C
:102840003000002070B5C821114800F0DDF80023E9
:102850000FE0581C85B203EB83000D4901EB8004A7
:1028600005EB850001EB8006002020706660581C97
:1028700083B2092BEDD303EB8300054901EB800400
:1028800000202070606008460249086070BD0000AA
:10289000840200202C00002000200A4908600A4918
:1028A00008700A4908700A4908700A4908700A49FC
:1028B00008600A4908600A4908600A4908600A492C
:1028C000087070476C00002041000020420000208A
:1028D0004F0000204E000020280000205000002063
:1028E0003C000020380000204000002000210A4A5F
:1028F0001170002004E00021084A1154411CC8B2A4
:102900000828F8D30021064A1170064A1170064AB9
:102910001160064A11607047450000204600002003
:1029200043000020440000205C00002054000020F0
:1029300070B54FF46471164800F066F84FF480717A
:10294000144800F061F8002311E0581CC5B203EBF5
:10295000430000EB03100E4901EB800405EB45003A
:1029600000EB051001EB80066661581CC3B20B2B0F
:10297000EBD303EB430000EB0310054901EB8004AC
:10298000002060610449086001480449086070BD86
:102990009C0800209C0700206000002058000020B8
:1029A00000B585B0032000218022074BCDE901321C
:1029B000CDE903104FF6FF703F23044A009004480E
:1029C000FFF7E6FC05B000BD9C050020980700203D
:1029D0002D2C000800B585B0032000218022074B74
:1029E000CDE90132CDE903104FF6FE703E23044AD3
:1029F00000900448FFF7CCFC05B000BD9C0300200C
:102A000098050020552C000804E0002200F8012B56
:102A10004A1E91B20029F8D1704700002DE9F0411B
:102A200078211048FFF7F0FF00240DE0601C86B20B
:102A300004EB44000B4901EBC00506EB460001EB3B
:102A4000C0072F60601C84B2042CEFD304EB440059
:102A5000044901EBC00500202860084602490860CF
:102A6000BDE8F0812C0C00206800002010B5002487
:102A7000FDF77AFB044613480078F8B9124800784D
:102A8000E0B900F02DF811481149097850F82100FB
:102A9000104908600E4800780F49097888420DD027
:102AA0000C480068406B401C0A49096848630B48A1
:102AB0000068401C09490860FDF76EFB2046FDF7E1
:102AC00057FB10BD41000020420000209C07002061
:102AD000440000205C00002043000020280000206B
:102AE0000649074A1278885C0649095C034A515C2A
:102AF00001EBC001044A1170704700007C7D0008A2
:102B00004500002046000020440000202DE9F84F39
:102B100005460F4690469946DDE90AAB0020009035
:102B2000FDF722FB00903B480468002C6DD054F860
:102B3000140F384908600098FDF71AFB44F8147C1C
:102B4000A576002020766076606144F810BC44F8D9
:102B500008AC44F80C8C0C9824F8040C24F8029C63
:102B6000E810207705F00700E076217F01208840FB
:102B7000A077E17E0120884060770020A060E060BF
:102B80002062A0626062E0622063143C002606E0DE
:102B9000002104F1480040F82610701CC6B2002E37
:102BA000F6D02046FFF7F2FB2046FFF74DFCFDF77D
:102BB000DBFA0090184840F825401848006860612A
:102BC0000020A0611548006810B1144800688461B5
:102BD000124804603034A07811490978084310493C
:102BE000087020780F49085C6178084314F83019A0
:102BF0000C4A50540C480078401C0B49087000984F
:102C0000FDF7B6FA0020BDE8F88F0098FDF7B0FA9E
:102C10004220F8E7580000209C07002060000020B8
:102C200045000020460000204F000020002400BF87
:102C300000BFFDF799FA044605480068401C0449A6
:102C400008602046FDF794FAFFF7FFFBF1E700006C
:102C500050000020002400BF02E02820FFF7E2FC23
:102C6000194800780028F8D0184800686421B0FBA3
:102C7000F1F0164908600846006828B90020144998
:102C80000870FF20FFF778FC00BFFDF76DFA0446DF
:102C9000104800681049086000200E49086020466E
:102CA000FDF766FA0C48006808490968B0FBF1F0C6
:102CB000C0F1640006490870FFF7C8FB00F00EF889
:102CC0001420FFF7AFFCE0E74000002038000020B0
:102CD00034000020500000203C0000207CB500257E
:102CE00014E069462846FFF7B3FB064666B9094873
:102CF00050F8254044B1012C06D0D4E9020100EB84
:102D00008100206401986064681CC5B23F2DE8D939
:102D10007CBD00009C07002002F0010343B102F0DB
:102D200002032BB102E0491E002308C00029FAD19A
:102D30007047836802699A4202D14268026102E0E8
:102D400002690A440261704770B504460D460026C8
:102D5000204602F077FC0646BF2E0AD0294620699D
:102D6000FDF77BFA29462046FFF7E3FFA069401EE6
:102D7000A06170BD836842699A4202D14268426193
:102D800002E042690A44426170472DE9F047044677
:102D9000894617469846089D00262078012802D0CB
:102DA0000120BDE8F087204602F052FC0646A02E26
:102DB00014D1B8F1010F0FD175B145B13A4629468A
:102DC000204600F01DF8064646B13046E9E7394690
:102DD0002046FFF7B9FF01E03046E2E73946606977
:102DE000FDF73BFA3A4649466069FDF71DFA394658
:102DF0002046FFF7BFFFA069401CA0613046D0E726
:102E00002DE9F04104460D4616460027207801289A
:102E100002D00120BDE8F081204602F013FC0746F5
:102E20007FB9324628462169FDF7FEF9314620690F
:102E3000FDF713FA31462046FFF77BFFA069401EDD
:102E4000A0613846E6E7000029B1064AD26902438C
:102E5000044BDA6104E0034AD2698243014BDA6130
:102E6000704700000010024029B1064A92690243EF
:102E7000044B9A6104E0034A92698243014B9A61D0
:102E8000704700000010024030B5002100220024ED
:102E900000232D4D6D6805F00C0121B1042905D0EA
:102EA000082923D105E0294D056022E0274D056062
:102EB0001FE0254D6D6805F47012234D6D6805F413
:102EC0008034022505EB92421CB9214D5543056023
:102ED0000BE01D4D6D6805F400351DB11C4D5543CB
:102EE000056002E0194D5543056002E0174D05608D
:102EF00000BF00BF144D6D6805F0F0010909154DC4
:102F00006B5C0568DD4045600F4D6D6805F4E06160
:102F1000090A104D6B5C4568DD4085600A4D6D689F
:102F200005F46051C90A0B4D6B5C4568DD40C56016
:102F3000054D6D6805F44041890B074D6B5CC56814
:102F4000B5FBF3F5056130BD0010024000127A00B8
:102F500000093D001400002024000020704710B537
:102F600000F002F810BD00000CB5002001900090A8
:102F70003348006840F480303149086000BF304871
:102F8000006800F4003000900198401C0190009807
:102F900018B90198B0F5A06FF1D12948006800F484
:102FA000003010B10120009001E000200090009856
:102FB000012843D12348006840F0100021490860EF
:102FC0000846006820F0030008600846006840F0EA
:102FD000020008601A48406819494860084640687D
:102FE00048600846406840F4806048600846406891
:102FF00020F47C1048600846406840F4E8104860BF
:103000000846006840F08070086000BF0C48006807
:1030100000F000700028F9D00948406820F0030053
:10302000074948600846406840F00200486000BF19
:103030000348406800F00C000828F9D10CBD0000DE
:103040000010024000200240042808D14FF0E02187
:10305000096941F004014FF0E022116107E04FF0EF
:10306000E021096921F004014FF0E022116170476D
:1030700010B505480078012805D1FFF793F8FFF750
:103080003DFBFFF7A1F810BD4E00002010B513481E
:10309000006840F001001149086008464068104986
:1030A00008400E494860084600680E4908400B4930
:1030B00008600846006820F48020086008464068E0
:1030C00020F4FE0048604FF41F008860FFF747FFC0
:1030D0004FF000600449086010BD0000001002407D
:1030E0000000FFF8FFFFF6FE08ED00E0F0B50C462B
:1030F000154600220021068C4FF6FE773E400684DE
:10310000028B018C4FF60C7632407E1C06EA0316C9
:103110002E433243104EB0420ED0104EB0420BD070
:10312000B0F1804F08D00E4EB04205D00D4EB042E7
:1031300002D00D4EB04206D14FF6FD76314044F03C
:103140000106314305E04FF6F576314044F00106C3
:10315000314302830184F0BD002C01400034014062
:103160000004004000080040000C0040F0B50C4690
:103170001546002200210026078C4FF6EF7C07EA57
:103180000C070784028B018C4FF6FF7707EA0416C1
:1031900040F6FF473A404FF6FF7707EA03373A43D6
:1031A0004FF6FF7707EA05273A43114FB8420ED092
:1031B000104FB8420BD0B0F1804F08D00E4FB8423C
:1031C00005D00E4FB84202D00D4FB84206D14FF68F
:1031D000DF77394046F01007394305E04FF65F7757
:1031E000394044F01007394302830184F0BD0000E8
:1031F000002C014000340140000400400008004061
:10320000000C0040F0B50C461546002200210026B7
:10321000078C4FF6FF6C07EA0C070784828B018C42
:103220004FF6FF7707EA04264FF60C773A404FF641
:10323000FF7707EA03172F433A43114FB8420ED0E6
:10324000104FB8420BD0B0F1804F08D00E4FB842AB
:1032500005D00E4FB84202D00D4FB84206D14FF6FE
:10326000FF57394046F48077394305E04FF2FF5766
:10327000394044F48077394382830184F0BD0000F3
:10328000002C0140003401400004004000080040D0
:10329000000C0040F0B50C46154600220021002627
:1032A000078C4EF6FF7C07EA0C070784828B018CA3
:1032B0004FF6FF7707EA043640F6FF473A404FF6ED
:1032C000FF7707EA05273A434FF6FF7707EA033708
:1032D0003A43114FB8420ED0104FB8420BD0B0F164
:1032E000804F08D00E4FB84205D00E4FB84202D0E2
:1032F0000D4FB84206D14DF6FF77394046F480575E
:10330000394305E047F6FF57394044F480573943C5
:1033100082830184F0BD0000002C01400034014094
:103320000004004000080040000C004010B50121DE
:10333000074800F032F8012808D10121044800F0C4
:103340000BF804480068401C0249086010BD0000EA
:103350000004004028010020CA430282704721B1C6
:10336000028842F00102028004E002884FF6FE73F8
:103370001A40028070470146888E70470146088FC8
:1033800070470146888C704702460020138A0B4024
:103390000BB1012000E00020704730B5024600204C
:1033A00000230024158A05EA0103958905EA010432
:1033B00013B10CB1012000E0002030BD70B505460E
:1033C0000C46244885420ED0234885420BD0B5F1E7
:1033D000804F08D02148854205D02148854202D03F
:1033E0002048854200D100E000BF208850B92389E1
:1033F000A28861882846FFF779FEE188284600F018
:1034000035F825E0208804280AD12389A28861881C
:103410002846FFF7ABFEE188284600F030F817E0B9
:10342000208808280AD12389A28861882846FFF7C6
:10343000E9FEE188284600F02FF809E02389A288F8
:1034400061882846FFF726FFE188284600F02DF81E
:1034500070BD0000002C0140003401400004004019
:1034600000080040000C004081847047028B4FF63A
:10347000F3731A400283028B0A4302837047028B64
:103480004FF2FF331A400283028B4FF6FF7303EAB9
:1034900001231A4302837047828B4FF6F3731A405D
:1034A0008283828B0A4382837047828B4FF2FF3381
:1034B0001A408283828B4FF6FF7303EA01231A437B
:1034C00082837047002202881D4B98420ED01D4B0C
:1034D00098420BD0B0F1804F08D01B4B984205D0DA
:1034E0001A4B984202D01A4B984204D14FF68F7370
:1034F0001A404B881A43174B984207D0164B9842F4
:1035000004D04FF6FF431A40CB881A4302808B88C1
:1035100083850B8803850A4B98420BD0094B984250
:1035200008D00E4B984205D00D4B984202D00D4B5F
:10353000984201D10B7A03860123838270470000F1
:10354000002C01400034014000040040000800400D
:10355000000C0040001000400014004000400140FA
:10356000004401400048014030B587B005460C4694
:1035700001210846FFF768FC01210420FFF774FCD5
:1035800001210846FFF770FC01211E48FDF79EFE51
:1035900001211D48FDF79AFE4FF40040ADF81800D8
:1035A00003208DF81A0004208DF81B0006A9174887
:1035B000FDF700FEADF81050ADF80C400020ADF85E
:1035C0001200ADF80E0003A94FF08040FFF77AFF1C
:1035D0000020ADF80000ADF802000120ADF80400B5
:1035E0000020ADF806000320ADF8080069464FF052
:1035F0008040FFF7E3FE01218807FFF7B0FE07B028
:1036000030BD000000011800000230000008014039
:1036100008B501210420FFF727FC4FF40040ADF866
:10362000000010208DF8030003208DF80200694689
:103630000E48FDF7BFFD4FF400410C48FDF78EFE2C
:10364000012001F0D9FB00214FF08040FFF70CFF73
:1036500003214FF08040FFF77FFE04208DF8030028
:1036600069460248FDF7A6FD08BD000000080140BC
:1036700030B587B005460C4601210846FFF7E4FB4C
:1036800001210820FFF7F0FB0820ADF81800032007
:103690008DF81A0004208DF81B0006A91548FDF7C7
:1036A00089FDADF81050ADF80C400020ADF81200C7
:1036B000ADF80E0003A94FF08040FFF703FF042090
:1036C000ADF800000020ADF802000120ADF80400C4
:1036D0000020ADF806000320ADF8080069464FF061
:1036E0008040FFF76BFE01218807FFF738FE07B027
:1036F00030BD0000000C014008B501210820FFF793
:10370000B3FB0820ADF8000010208DF80300032063
:103710008DF8020069460D48FDF74CFD08210B4865
:10372000FDF71CFE012001F067FB00214FF08040F7
:10373000FFF79AFE05218807FFF70EFE04208DF89B
:10374000030069460148FDF735FD08BD000C014046
:1037500030B587B005460C4601210220FFF774FB07
:1037600001210820FFF780FB01210846FFF77CFBC1
:1037700001211A48FDF7AAFD1020ADF8180003201A
:103780008DF81A0004208DF81B0006A91448FDF7D7
:1037900011FDADF81050ADF80C400020ADF812004E
:1037A000ADF80E0003A90F48FFF78CFE0020ADF81E
:1037B0000000ADF802000120ADF804000020ADF8D3
:1037C00006000320ADF8080069460648FFF7F6FD3D
:1037D00001210448FFF7C3FD07B030BD00081A00FF
:1037E000000C01400004004008B501210820FFF74B
:1037F0003BFB1020ADF800008DF8030003208DF88E
:10380000020069460C48FDF7D5FC10210A48FDF777
:10381000A5FD012001F0F0FA00210848FFF724FE81
:1038200003210648FFF798FD04208DF80300694640
:103830000148FDF7BFFC08BD000C0140000400403A
:1038400030B587B005460C4601210220FFF7FCFA8F
:1038500001210820FFF708FB2020ADF81800032005
:103860008DF81A0004208DF81B0006A91448FDF7F6
:10387000A1FCADF81050ADF80C400020ADF81200DE
:10388000ADF80E0003A90F48FFF71CFE0420ADF8A9
:1038900000000020ADF802000120ADF80400002077
:1038A000ADF806000320ADF8080069460548FFF7AB
:1038B00085FD01210348FFF752FD07B030BD000030
:1038C000000C01400004004008B501210820FFF76A
:1038D000CBFA2020ADF8000010208DF80300032063
:1038E0008DF8020069460D48FDF764FC20210B4865
:1038F000FDF734FD012001F07FFA00210848FFF7B1
:10390000B3FD05210648FFF727FD04208DF80300CD
:1039100069460248FDF74EFC08BD0000000C01405E
:103920000004004030B587B005460C460121042054
:10393000FFF78AFA01210820FFF796FA4020ADF838
:10394000180003208DF81A0004208DF81B0006A92A
:103950001348FDF72FFCADF81050ADF80C400020D7
:10396000ADF81200ADF80E0003A90E48FFF7AAFD4E
:103970000020ADF80000ADF802000120ADF8040011
:103980000020ADF806000320ADF8080069460548A0
:10399000FFF714FD01210348FFF7E1FC07B030BD3C
:1039A000000C01400008004008B501210820FFF785
:1039B0005BFA4020ADF8000010208DF803000320D2
:1039C0008DF8020069460D48FDF7F4FB40210B48D5
:1039D000FDF7C4FC012001F00FFA00210848FFF7B1
:1039E00043FD03210648FFF7B7FC04208DF80300D0
:1039F00069460248FDF7DEFB08BD0000000C0140EF
:103A00000008004030B587B005460C46012104206F
:103A1000FFF71AFA01210820FFF726FA8020ADF8F7
:103A2000180003208DF81A0004208DF81B0006A949
:103A30001448FDF7BFFBADF81050ADF80C40002066
:103A4000ADF81200ADF80E0003A90F48FFF73AFDDC
:103A50000420ADF800000020ADF802000120ADF810
:103A600004000020ADF806000320ADF80800694608
:103A70000548FFF7A3FC01210348FFF770FC07B0DE
:103A800030BD0000000C01400008004008B50121D5
:103A90000820FFF7E9F98020ADF8000010208DF82C
:103AA000030003208DF8020069460D48FDF782FBF4
:103AB00080210B48FDF752FC012001F09DF9002107
:103AC0000848FFF7D1FC05210648FFF745FC042014
:103AD0008DF8030069460248FDF76CFB08BD000045
:103AE000000C014000080040F0B585B007460024F6
:103AF00009E0384604F040F82DF814000A2001F0DF
:103B00007BF9601CC4B20A2CF3DB002416E0601CB5
:103B1000C5B20FE03DF814003DF81510884207DDEE
:103B20003DF814603DF815002DF814002DF81560CF
:103B3000681CC5B20A2DEDDB601CC4B2092CE6DBA3
:103B40000026022405E03DF81400304486B2601CD3
:103B5000C4B2082CF7DB062096FBF0F0788078885A
:103B6000B0F5004F02DB012005B0F0BD0020FBE7FF
:103B700010B50024FCF7F8FA04460449044804F0A0
:103B800075F82046FCF7F4FA10BD0000E8000020AC
:103B9000004C004010B50024FCF7E6FA0446044946
:103BA000044804F063F82046FCF7E2FA10BD000078
:103BB000080100200050004010B50024FCF7D4FAA2
:103BC00004460449044804F051F82046FCF7D0FAB2
:103BD00010BD0000880000200038014010B500240E
:103BE000FCF7C2FA04460449044804F03FF82046B2
:103BF000FCF7BEFA10BD0000A80000200044004001
:103C000008B501210820FFF72FF901218804FFF7EB
:103C10001BF94FF40060ADF8000003208DF802009E
:103C200048208DF8030069460848FDF7C3FA4FF4B1
:103C30008060ADF8000003208DF8020018208DF898
:103C4000030069460148FDF7B5FA08BD000C0140C4
:103C500010B50024FCF788FA04460449044804F02F
:103C600005F82046FCF784FA10BD0000C8000020CB
:103C70000048004021B1828942F40052828104E070
:103C800082894DF6FF731A40828170477FB50546E1
:103C90000C4600940020ADF80400ADF80600ADF825
:103CA0000800ADF80C000C20ADF80A006946284663
:103CB00000F068F8012240F22551284600F03CF857
:103CC00001212846FFF7D6FF7FBD02460020B1F54F
:103CD000007F00D100BF13880B400BB1012000E032
:103CE0000020704770B50246002400230025002004
:103CF00040F66A16B14200D100BFC1F3421501F08F
:103D00001F03012606FA03F3012D02D196893340E1
:103D100006E0022D02D1168A334001E0968A334034
:103D20000C12012606FA04F41688344013B10CB1C3
:103D3000012000E0002070BDF0B5034600240026FD
:103D40000025002040F66A17B94200D100BF18468E
:103D5000C1F3421401F01F06012707FA06F5012CF2
:103D600001D10C3004E0022C01D1103000E01430FD
:103D70001AB107682F43076002E00768AF43076086
:103D8000F0BD00002DE9F04786B005460E46002440
:103D9000A24600BFA1460027B08900B100BF2F4650
:103DA0002C8A4CF6FF700440F08804432C82AC89C6
:103DB0004EF6F3100440B0883189084371890843F6
:103DC0000443AC81AC8A4FF6FF400440B089044301
:103DD000AC8201A8FFF758F81F48874202D1DDF8EE
:103DE00010A001E0DDF80CA0A88900F4004040B16B
:103DF0000AEBCA0000EB0A1031684900B0FBF1F889
:103E000007E00AEBCA0000EB0A1031688900B0FB3A
:103E1000F1F86420B8FBF0F004012009642101FBF3
:103E20001089A88900F4004040B1322000EBC9009D
:103E3000B0FBF1F000F00700044308E0322000EB93
:103E400009106421B0FBF1F000F00F0004432C8155
:103E500006B0BDE8F08700000038014001468888C0
:103E6000C0F308007047C1F30802828070472DE953
:103E7000F04706460C4617469846DDE9095ADDF834
:103E80002090B047B5F5805F03D8B9F1000F00D09E
:103E90000DB90025A9462773C4F81090258300208A
:103EA0006083A0836061C4F808A0207903F0FCFE61
:103EB00041462068FFF7EAFEBDE8F08700BFFEE755
:103EC00000B585B0032000212022354BCDE9013219
:103ED000CDE903100A200346314A7C320090314874
:103EE000FEF756FA03200021B0222F4BCDE9013214
:103EF000CDE903100B2003462C4A00902C48FEF716
:103F000047FA03200021B0222A4BCDE90132CDE946
:103F100003100C200346284A00902848FEF738FA80
:103F200003200021B022264BCDE90132CDE9031058
:103F30000D200346234A00902348FEF729FA032068
:103F400000215022214BCDE90132CDE903100E2092
:103F500003461F4A00901F48FEF71AFA032000216B
:103F60004FF480721C4BCDE90132CDE903100F20D4
:103F700003461A4A00901A48FEF70AFA0320002165
:103F8000B022184BCDE90132CDE9031010200346D1
:103F9000154A00901548FEF7FBF905B000BD00007A
:103FA000440D002061560008C40D00208010002040
:103FB000697800088410002040130020B1780008C0
:103FC0004413002000160020F97800080416002091
:103FD000401700202D79000844170020401B0020C6
:103FE000DD7A0008441B0020001E0020157B00081D
:103FF0000FB4054B10B503A9044A029800F06EF9FE
:1040000010BC5DF814FB0000C555000880000020BE
:104010000FB4084B10B504A902AA039800F05EF98A
:10402000044602A9002000F0F0FC204610BC5DF818
:1040300014FB00000B4A0008490050EAC12018BFD9
:1040400004204A0D18BF40F0010040F2FF72B2EBAD
:10405000515F08BF40F00200012808BF05207047EB
:104060002DE9F0414F1E00EBC7010446D1E90001E4
:1040700015461E4637F006020DD02A463346FCF799
:10408000E2F97F1E04EBC703D3E90023FCF734F900
:1040900037F00602F1D1022F25D0042F13D0062FBE
:1040A00018BFBDE8F0812A463346FCF7CCF9D4E9C5
:1040B0000A23FCF721F92A463346FCF7C4F9D4E970
:1040C0000823FCF719F92A463346FCF7BCF9D4E972
:1040D0000623FCF711F92A463346FCF7B4F9D4E974
:1040E0000423FCF709F92A463346FCF7ACF9D4E976
:1040F0000223FCF701F92A463346FCF7A4F9D4E978
:104100000023BDE8F041FCF7F7B800000022134699
:1041100010460149FCF73FBB0000F03FFCF7ECB84C
:104120000022134610461146FCF735BB40F201321F
:1041300000204FF0E041FCF79DBB0000024A002048
:104140001107FCF797BB000001FDFFFF02E008C864
:10415000121F08C1002AFAD170477047002001E001
:1041600001C1121F002AFBD17047000001490860FD
:1041700070470000800200202DE9FF5FDDE902208A
:10418000010DDDF838B0024318D044F61050A1F20A
:10419000FF3141430D140F98012820D0A5EB0B00EF
:1041A000401C5FEA000A4FF00004474EDFF81C9104
:1041B000A046504616D5CAF1000728E00F98012402
:1041C00043A2012808D0002100980F9BC0E90021DC
:1041D000C0E90243BDE8FF9F6FEA0B01F4E7CBF1B2
:1041E0000000DEE7074612E0F80707D02246334614
:1041F00040464946FCF727F9804689462246334621
:1042000010461946FCF71FF904460E467F10002F92
:10421000EAD1DDE90201BAF1000F42464B4602DA6B
:10422000FCF711F901E0FCF7B6FA04460E4600224D
:10423000284BFCF7C3F903D84FF0FF30014607E0E5
:104240000022254B20463146FCF756F8FCF729FBA7
:10425000102409E0002C0ADB0A220023FCF7DCF919
:10426000019B30321A55641E50EA0102F2D1641CDF
:10427000019AC4F1110314440F9A012A03D00122B8
:1042800008430DD10AE0084304D000204FF0110B81
:104290000F9080E7A3EB0B056D1E0DE05B4504DD81
:1042A0004FF0000205F1010504E003DA4FF00002CF
:1042B000A5F10105002AECD000980F99C0E9023160
:1042C000C0E9004586E70000000024400000F03F00
:1042D000300000000000F0430000E03F2DE9FF4FF8
:1042E00095B09B468946064600250FE2252877D1E2
:1042F00000242746F84A0121059400E0044316F8FB
:10430000013F203B01FA03F01042F7D130782A2810
:1043100011D06FF02F033078A0F13002092A16D89F
:10432000059A44F0020402EB820203EB42021044BD
:10433000761C0590EFE759F8042B0592002A03DA62
:10434000504244F40054059044F00204761C307846
:104350002E2816D116F8010F44F004042A280DD097
:104360006FF02F023078A0F13003092B09D807EB4A
:10437000870302EB4303C718761CF3E759F8047B65
:10438000761C30786C280FD006DC4C2817D06828B3
:104390000DD06A2814D104E0742810D07A280FD1E7
:1043A0000DE044F400140AE044F4801401E044F405
:1043B00040147278824202D104F58014761C761C77
:1043C000307866280BD013DC582877D009DC002819
:1043D00075D04528F6D04628F4D047281AD19DE15B
:1043E00018E0632835D0642879D0652812D195E18A
:1043F000702873D008DC6728F1D069286FD06E2848
:104400000DD06F2806D1B5E073282CD0752875D053
:10441000782874D05A46179990476D1C75E1C4F3FB
:104420000250022809D003280DD0D9F80010042822
:104430000DD00D6009F1040967E1D9F80010EA1701
:10444000C1E90052F6E7D9F800100D80F2E70D70CF
:10445000F0E719F8041B8DF8001000208DF801001A
:10446000EA46012003E059F804AB4FF0FF30610742
:104470004FF0000102D40DE008F101018846B94275
:104480000FDA8045F8DB1AF808100029F4D108E0AB
:1044900008F1010188468142FADB1AF80810002968
:1044A000F6D105985B46A0EB080721463846179AD7
:1044B00000F094FA284400EB080507E04DE029E1FC
:1044C0000DE01AF8010B5A4617999047B8F1010808
:1044D000F7D25B4621463846179A13E142E00A229A
:1044E0000092C4F302524FF0000A022A08D059F891
:1044F00004CB032A4FEAEC710AD00DE029E02AE050
:1045000009F1070121F00702F2E802C1914609E032
:104510000FFA8CFC4FEAEC71042A03D14FFA8CFCA1
:104520004FEAEC71002907DA0A460021DCF1000CA1
:1045300061EB02012D2202E0220504D52B228DF829
:104540000420012203E0E20701D02022F7E7904691
:1045500059E00A2102E010220DE010214FF0000A7C
:1045600000910BE010224FF0000A44F004040827E9
:10457000009203E008224FF0000A0092C4F30252B6
:10458000022A05D059F804CB0021032A08D009E0FB
:1045900009F1070121F00702F2E802C1914605E0A6
:1045A0001FFA8CFC042A01D10CF0FF0C4FF000081C
:1045B000220728D5702806D0009B83F0100353EA09
:1045C0000A0305D00EE040228DF80420012208E005
:1045D0005CEA010206D030228DF804208DF8050037
:1045E00002229046009B83F0080353EA0A030AD193
:1045F0005CEA010201D1620705D530228DF8042062
:104600004FF001087F1E582804D034A003900EA854
:1046100002900DE036A0F9E753466046009AFBF79A
:10462000FBFF84460398825C0298401E0290027051
:104630005CEA0100F0D1029806A9081A00F1200AEC
:10464000600702D524F4803400E00127574502DDDD
:10465000A7EB0A0000E0002000EB0A01009005989B
:104660004144401A0590E00306D45B462146179A60
:10467000059800F0B3F90544002706E001A85A4662
:10468000C05D179990476D1C7F1C4745F6DBE00322
:104690000CD55B462146179A059800F09FF9054412
:1046A00004E030205A46179990476D1C0099481E27
:1046B00000900029F5DC08E0029802995A4600783B
:1046C000491C0291179990476D1CBAF10001AAF19B
:1046D000010AF1DC65E100000928010030313233C4
:1046E000343536373839616263646566000000002E
:1046F0003031323334353637383941424344454618
:104700000000000000F058F90544761C30780028BD
:104710007FF4ECAD19B02846BDE8F08F620700D4F5
:10472000062709F1070222F0070CFCE80223E14604
:1047300003F000485FEA080C02D00FF2702C0DE085
:104740005FEA045C02D50FF2682C07E05FEAC47CE4
:1047500002D00FF2602C01E0AFF2700C4FF0FF3886
:1047600023F00043CDF850C065280CD006DC452866
:1047700009D046281DD047283DD13DE0662818D0F5
:1047800067287ED138E00021112F01DB112000E0E5
:10479000781CCDE9000106A90EA8FFF7EDFCDDE9C4
:1047A0000F010E9A03910021009207F1010A049172
:1047B0004DE04FF000400097CDE9011006A90EA88A
:1047C000FFF7DAFCDDE90F0203920E9B119900223C
:1047D000DDF80CA00093049211B9791C00EB010ADA
:1047E000B7EB0A0004D4C0F1FF3007F1010A0490CE
:1047F000AAEB0700019044E0012F00DA0127002115
:10480000112F01DD112000E03846CDE9000106A995
:104810000EA8FFF7B1FCDDE90F010E9A039100210C
:1048200004910092BA4621070CD40399514500DA4D
:104830008A46BAF1010F05DD009AAAF10101515C27
:10484000302908D0B84202DA10F1040F06DA01214B
:10485000CDE9011015E0AAF10101E9E7002805DC26
:10486000049901440491AAEB000102E0411C514566
:1048700000DD8A460499401A401C01904FF0004028
:104880000290200704D40198504501DBCDF8048044
:1048900000208DF84F0002980DF14F07B0F1004F46
:1048A00025D02B200E9002984FF0020800280CDA39
:1048B000404202902D200E9007E00A210298FBF75B
:1048C00095FE3031029007F8011DB8F10001A8F102
:1048D0000108F2DC02980028EFD1791E0E980870CA
:1048E000307800F0200040F0450007F8020D12A8D3
:1048F000C01B00F107081498007800B1012000EBFC
:104900000A01019801EBE07105984144401A401EEC
:104910000590E00306D45B462146179A059800F0FF
:104920005DF805441498007818B15A4617999047D5
:104930006D1CE00324D55B462146179A059800F0CC
:104940004DF805441CE00498002807DBDDE903016D
:10495000884203DD0098405C179901E017993020E8
:104960005A469047049805F10105401C04900198AF
:10497000401E019004D12E205A46179990476D1C75
:10498000BAF10001AAF1010ADDDC05E017F8010B1C
:104990005A46179990476D1CB8F10001A8F101081B
:1049A000F4DC5B462146179A0598ABE62D00000023
:1049B0002B000000200000002DE9F04104460025F6
:1049C0001E461746880404D405E039462020B04727
:1049D0006D1C641EF9D52846BDE8F0812DE9F04133
:1049E000044600251E469046C80301D5302700E046
:1049F0002027880404D505E041463846B0476D1CA1
:104A0000641EF9D52846BDE8F0810A68531C0B6086
:104A1000107070477047704701460020704770471C
:104A2000704700207047704770B505460E46AC6869
:104A300006B970BD0CB9AE6009E000E0246814B19D
:104A400020680028FAD13146204602F00AFF00BF54
:104A5000EFE7000070B506460D46144604B970BD78
:104A6000206A18B10649206A09688847284600F07C
:104A700049F9206221463046FFF7D6FF00BFEEE736
:104A80007402002070B505460E4600F0C1F80446D9
:104A900044B10320E060C4E9065628463146FBF7DE
:104AA00055FD6061204670BD10B500F0B1F80446B8
:104AB0000CB10620E060204610BD000070B5044631
:104AC00022E02568A08900F4807020B9A06810B1A8
:104AD000A068FFF7F3FFA08900F4807028B920696F
:104AE00018B10B49206909688847A08900F4007053
:104AF00028B9206A18B10649206A09688847204603
:104B00000349096888472C46002CDAD170BD0000A3
:104B1000740200202DE9F047054689464FF0000851
:104B200015B90020BDE8F08700F072F804460CB912
:104B30000020F7E7E86820F48070E0606869606151
:104B4000D5E90601C4E90601286950B1286900F0D9
:104B5000D9F82061206920B92046FFF7AFFF002077
:104B6000E0E7286A50B1286A00F0CCF82062206A99
:104B700020B92046FFF7A2FF0020D3E7B9F1000FCC
:104B800001D12046CEE7AF6816E001213846FFF795
:104B9000C1FF064626B92046FFF790FF0020C1E777
:104BA000B8F1000F05D0C8F80060C6F80480B04620
:104BB00001E0A660B0463F68002FE6D12046B1E78D
:104BC0000246906801E0491E006808B10029FADC3D
:104BD000704701468A68002001E0401C1268002AE4
:104BE000FBD1704701480068704700006C0200204C
:104BF00070B505460E46AC6800E024682CB131461D
:104C0000206A00F058F80028F7D1204670BD000057
:104C100010B5282005490968884704461CB1282199
:104C20002046FBF71AFB204610BD00007002002052
:104C300010B5044600221146204600F001F810BDD0
:104C40002DE9F04780460D4616460024FFF7E0FFA9
:104C500007460020124908600FB9BDE8F0874046BA
:104C600002F0C0FD81464946384601F03FFA04464D
:104C700024B93846FFF722FF0020EEE766B1204650
:104C800002F0B0FD0446207830B13846FFF716FF39
:104C9000034804600020E0E705B12C603846DCE7FB
:104CA0006C02002010B5044600231A46194620461F
:104CB00002F064FC10BD70B504460D462CB9AC4240
:104CC00001D0012070BD0020FCE70DB90120F9E7FB
:104CD00005E0207808B90020F4E7641C6D1C2078FA
:104CE000FBF79CFA06462878FBF798FA8642F0D044
:104CF0002078FBF793FA06462878FBF78FFA301AEC
:104D0000E0E7000070B504462046FBF7BBFA451CFF
:104D10002846064909688847060000D170BD2A4622
:104D200021463046FBF780FA3046F7E77002002054
:104D300070B504460D46002084F824004FF6FF703D
:104D4000E0842946204600F09FFC08B1012070BD98
:104D500094F828102920005D41EA002045F2AA516C
:104D6000884201D00D20F2E794F82D00010694F856
:104D70002C0041EA004194F82B0041EA00202A214E
:104D8000095D084320F07F400349884201D100209B
:104D9000DDE71420DBE700005053450010B56FF04D
:104DA0000400FEF751F9104800681049B0FBF1F01B
:104DB0000F4908700C4800680C49B0FBF1F441F24F
:104DC0008830444305200B4908804FF0E0200069FB
:104DD00040F002004FF0E02108610846446100699C
:104DE00040F00100086110BD0000002000127A00B0
:104DF000840000208600002070B504460F4800782B
:104E0000A0B10F48007888B90E480088844206DBBC
:104E10000C48008894FBF0F5284600F01DF809487E
:104E2000008894FBF0F100FB114084B24FF47A71DA
:104E300004FB01F000F016F870BD00004E000020E9
:104E4000410000208600002010B5FDF705FA10BDD6
:104E500010B5FDF721FA10BD10B504462046FDF748
:104E6000E1FB10BD2DE9F047074600264FF0E0209A
:104E7000D0F814901148007807FB00F800BFFFF746
:104E8000E3FF4FF0E020856911E04FF0E0208469F6
:104E9000AC420CD0AC4202D2281B064403E0A9EB82
:104EA0000400284406442546464500D300E0ECE7CC
:104EB00000BFFFF7CDFFBDE8F087000084000020B1
:104EC00070B5054615B1012D05D103E0FBF7E4FDF2
:104ED000044602E001E0012400BF00BF0CB1012044
:104EE00070BD0020FCE72DE9F041064688461746D4
:104EF0001D4615B90420BDE8F08116B1012E08D178
:104F000006E0AAB241463846FBF7E0FE044602E05E
:104F100001E0012400BF00BF0CB10120EBE700203D
:104F2000E9E72DE9F0410546884616461F4615B1CA
:104F3000012D08D106E0BAB241463046FBF7CCFF5E
:104F4000044602E001E0012400BF00BF14B10120CB
:104F5000BDE8F0810020FBE701460020704700001B
:104F60002DE9F04104460D460027022D02DB0B20FF
:104F7000BDE8F0810B4850F8256026B16822002179
:104F80003046FBF763F914B10020A070607005484B
:104F900040F8254000222946204600F0E1FB074664
:104FA0003846E5E7EC0100202DE9FE4304460F46B4
:104FB000904614B90920BDE8FE835548006820607A
:104FC00004F11000811ECDE900108B1FA21D39468F
:104FD0002068FBF7B5FF0546052D7ED108F01C00C3
:104FE000002878D02068808910B12068808A08B9AC
:104FF0001520E0E7002669E002AA31462068FCF7A8
:1050000079F805460DB12846D5E7BDF808004EF6FB
:10501000EE61884258D1FF22042104F10A00FBF717
:1050200015F904F11000811ECDE900108B1FA21D9F
:10503000091F2068FBF784FF05460DB12846BAE733
:105040003868C4F80A000020E0812682208AE189BD
:10505000CDE900102289E18804F10A032068FBF7FA
:10506000C6FF05460DB12846A5E720688089401E89
:1050700021688881208A60824FF6FF70A082A28A10
:10508000618A2068FCF762F805460DB1284692E770
:105090002068808A401E216888822068408B401EDC
:1050A00021684883D4F800C0BCF81A30BCF814203A
:1050B000BCF80C106046FCF789FC05461DB128467B
:1050C00079E70AE007E005E0701C86B22068408AB4
:1050D000B04291DC13E028466DE775B93868C4F832
:1050E0000A00208A6082618A04F114022068FCF7B9
:1050F00001F805461DB128465DE728465BE725B95E
:1051000084F804800020E061A061284653E7000095
:10511000EC0100202DE9FF5F0446894615469846BC
:10512000CDF804900020C8F8000014B1B9F1000FC8
:1051300003D1132004B0BDE8F09F2068C08A00901E
:10514000E089A18B401A1FFA80FA554500D95546CF
:105150002168C978E069B0FBF1F080B20290A169E2
:105160000298814228D0208A6082618A04F1140268
:105170002068FBF7BFFF06460EB13046DAE7002095
:10518000A06115E0A08A6082608A4FF6FF718842B4
:1051900001D10120CEE7618A04F114022068FBF7F7
:1051A000A9FF06460EB13046C4E7A069401CA061C5
:1051B000A16902988142E5D347E0608A4FF6FF710A
:1051C000884200D143E0608A03902168C978E06991
:1051D000B0FBF1F201FB12001FFA80FB2068C078DF
:1051E000A0EB0B0087B2BD4201D2AFB204E0A08AAF
:1051F0006082A069401CA061039B009A1A4491B28E
:10520000206800F041FA06460EB1304692E7206869
:10521000283000EB0B013A460198FBF705F8618A4C
:1052200004F114022068FBF765FF06460EB1304614
:1052300080E7019838440190E0693844E061D8F88B
:1052400000003844C8F80000ED1B002DB5D100BFA8
:1052500030466FE770B503460C46DE69DD8923B141
:105260002AB1012A03D0022A01D0132070BD22B135
:10527000012A04D0022A06D103E0214604E03119B4
:1052800002E0291900E000BF00BF002901DBA942AC
:1052900001DD0120EAE7D9610020E7E72DE9F041CF
:1052A00004460E460CB1206810B90020BDE8F0811C
:1052B000A06806446068B04203DBA1682068084427
:1052C000F4E7304601F05AFC074638460D490968B4
:1052D000884705463DB90C49206809688847002081
:1052E00060602060E2E725B12846D4E90012FAF7B1
:1052F0009BFF054920680968884767602560A068AA
:105300002844D3E770020020740200202DE9F04FFA
:105310008DB007464FF00008C146C246C346002084
:105320000C900024039002224DA104A8FFF73CFE3C
:1053300000282CD1BDF81E10481C00F0DBF90446F3
:105340000CB3BDF81E00411C2046FAF786FF002270
:10535000114604A8FFF77EFFBDF81E2003AB2146CF
:1053600004A8FFF7D7FEBDF81E000399884207D1B5
:105370003DA00399FEF73CFE2046FFF759FC80460E
:10538000204600F02DF904A8FFF7E6FD02E03CA05E
:10539000FEF72EFEB8F1000F57D03FA14046FFF7B1
:1053A00027FC8146D9F80C0005284AD14846FFF76A
:1053B00010FC029000253FE029464846FFF700FC1C
:1053C0008246BAF1000F36D036A15046FFF710FCE6
:1053D000066931463846FAF75CFF00282BD139467A
:1053E00033A0FEF705FE36A15046FFF701FC8346C9
:1053F000DBF80C0005281DD15846FFF7EAFB0190A9
:10540000002613E031465846FFF7DAFB0C902EA138
:105410000C98FFF7EDFB0069014600902BA0FAF70E
:1054200038FF10B90C9800F085FA761C0198864276
:10543000E8DB00BF03E06D1C02988542BCDB00BFC7
:1054400000BF4046FFF73AFB06E0FFF7CBFB0546FF
:10545000294620A0FEF7CCFD0DB0BDE8F08F00007E
:105460006D6F64650000000072656164206D6F649B
:10547000652066696C65206F6B2C25640A0000004E
:105480006F70656E206D6F64652066696C6520665F
:1054900061696C210A0000006D6F64654C6973746A
:1054A000000000006D6F64654E616D6500000000D6
:1054B000657865632022257322206D6F64650A007C
:1054C0006D6F646543746C00636D64006E6F64653A
:1054D00043746C004572726F72206265666F72650C
:1054E0003A205B25735D0A002DE9F041C1F30A52B1
:1054F000A2F2FF362F4A304B0D460446142E2FDA07
:10550000002E12DAFAF7F8FE00221346FBF756F8DF
:105510004CD2002DA4BF0024254647DA25F00040D8
:10552000204318BF254D41D018E0DFF894C02CFA75
:1055300006F705EA070C5CEA040C08BFBDE8F08139
:10554000FAF7DAFE00221346FBF738F82ED2002DC8
:1055500003DA4FF48010F0400544BD43002425E0F9
:10556000332EC8BFBDE8F081A6F1140C4FF0FF3711
:1055700027FA0CF73C4208BFBDE8F081FAF760FF5C
:1055800000221346FBF71AF810D2002D0DDA142E64
:1055900008BF6D1C09D0C6F13400012101FA00F0EA
:1055A0002044A04238BF6D1C0446BC432946204617
:1055B000BDE8F0819C7500883CE4377E0000F0BFB8
:1055C000FFFF0F0000BF054A128802F04002002AC8
:1055D000F9D0C2B2014B1B1D1A8070470048004031
:1055E00010B5002821D0114B0022001F196803E0DC
:1055F000814203D80A4649680029F9D152B113689B
:10560000841A9C4204D1006818441060104602E0DD
:10561000506000E0186039B102680B1A934203D160
:105620000B681A4402604968416010BD780200208E
:105630007047704700207047704770477047704749
:1056400070477047014600208A6902B9BF20704741
:1056500001460020CB688A699A4200DBA02070478F
:105660000EE04FF4FA73002211461046FDF716F8CB
:105670000448006808B9012000E0002001490860E2
:10568000EFE700008401214270B504460D46002674
:10569000E08CA8420BD0207801232A4604F128018F
:1056A000FFF721FC10B14FF6FF750126E584304667
:1056B00070BD000000B585B0FBF72AFCFCF75AFD71
:1056C000032000212822094BCDE90132CDE9031046
:1056D00004200346054A9C3200900548FCF758FE1A
:1056E000FCF70AFE002005B000BD0000A40C00205D
:1056F00043780008F0B50B30154D20F00701002469
:10570000144A0FE003688B420BD38B4205D95E1A13
:1057100043184768C3E9006700E04368136002C0AC
:1057200004E0021D10680028ECD12046002802D1B8
:10573000286808B10020F0BD064A07481060074AF3
:10574000121A22F00702C0E9002401202860D7E7DE
:105750007C02002078020020BC200020B8460020F7
:105760002DE9F04F8BB004460D46607801280CD02F
:105770002846FFF7A5FB07462FB1002060700320E5
:105780000BB0BDE8F08F0120607000200A90204629
:105790000A99FFF7CDFA06460EB13046F0E72570BC
:1057A0002D20015D94F82E0041EA002000F0FF0B4F
:1057B00084F803B094F83100010694F8300041EA0F
:1057C000004194F82F0041EA00202E21095D084392
:1057D00080B207900798A08094F83300010694F8EF
:1057E000320041EA004194F8310041EA00203021C2
:1057F000095D08431FFA80F8A4F806803220015D95
:1058000094F8330041EA0020C0B209900998207250
:1058100094F83600010694F8350041EA004194F806
:10582000340041EA00203321095D084380B206902C
:105830000698608194F83800010694F8370041EA30
:10584000004194F8360041EA00203521095D084303
:1058500080B203900398A08194F83A00010694F86E
:10586000390041EA004194F8380041EA002037212C
:10587000095D08431FFA80F9A4F80E903920015DF4
:1058800094F83A0041EA0020C0B2089008982074C9
:1058900094F83D00010694F83C0041EA004194F878
:1058A0003B0041EA00203A21095D084380B205909F
:1058B0000598608294F83F00010694F83E0041EAA2
:1058C000004194F83D0041EA00203C21095D084375
:1058D00080B202900298A0823E20015D94F83F00C1
:1058E00041EA002AA4F816A094F84400010694F8AE
:1058F000430041EA004194F8420041EA002041217E
:10590000095D084380B204900498208394F846000F
:10591000010694F8450041EA004194F8440041EA48
:1059200000204321095D084380B201900198608303
:10593000002025E72DE9F04F85B005464FF0000A1D
:10594000AB460024BBF1000F02D105B0BDE8F08FDB
:1059500034A15846FFF74CF9044604B9F5E733A0E3
:105960002169FEF745FB0020039004902069FAF7B7
:1059700089FC074603AA39462069FBF743FE0290DB
:10598000FFF792F88246BAF1000F00D1DDE701215E
:105990005846FFF7BFF807463A4629A15046FFF799
:1059A00059F85846FFF77EF90646002E34D03046A7
:1059B000FAF768FC074639463046FBF7D3FC0190FE
:1059C0003046FFF70DFE0198FAF7AFFD0746FFF7E7
:1059D00059F802461CA100905046FFF73BF850468C
:1059E000FFF760F98146B9F1000F14D04846FAF785
:1059F00049FCC7B23B464A4603A90120FCF77CFAA2
:105A000018B912A0FEF7F4FA02E016A0FEF7F0FAB9
:105A10004846FFF7E5FD00BF5046FFF74FF800BFCF
:105A200093E700006E6F6465496400006E6F646503
:105A30004964202573206E6F646543746C210A00ED
:105A40002B64617461000000637263006E6F6465B3
:105A500043746C2065786563206163637565737357
:105A6000210A00006E6F646543746C20657865637D
:105A7000206661696C210A00704770477047704763
:105A800070477047704770470020704770477047F5
:105A90002DE9F04705460C4620785B2804D02648BF
:105AA00004600020BDE8F0870520E860601C01F07C
:105AB00099FE044620785D2801D1601CF2E7FFF7CB
:105AC000A7F80646A860A86808B90020EAE72046BB
:105AD00001F088FE80464146304600F007FB07464D
