:020000040800F2
:10000000902700200D020008F90800087708000872
:10001000F508000871040008DF2200080000000055
:100020000000000000000000000000004D19000862
:1000300075040008000000009B0200087D1A0008FB
:1000400027020008270200082702000827020008EC
:100050002702000827020008790400082702000888
:1000600027020008270200082702000827020008CC
:1000700027020008270200082702000827020008BC
:1000800027020008270200082702000827020008AC
:10009000270200082702000827020008270200089C
:1000A00027020008691B0008270200082702000831
:1000B0007D1C0008F11C0008270200082702000828
:1000C000270200082702000827020008270200086C
:1000D00027020008C11E0008E51E0008091F0008CD
:1000E000270200082702000827020008270200084C
:1000F000270200082702000827020008270200083C
:10010000270200082702000827020008270200082B
:10011000291E00084D1E00082702000827020008BB
:10012000270200082702000827020008270200080B
:1001300000F002F800F05AF80AA090E8000C82449F
:100140008344AAF10107DA4501D100F04FF8AFF27C
:10015000090EBAE80F0013F0010F18BFFB1A43F0A5
:100160000103184768260000882600000A444FF063
:10017000000C10F8013B13F0070408BF10F8014B06
:100180001D1108BF10F8015B641E05D010F8016B4B
:10019000641E01F8016BF9D113F0080F1EBF10F8AF
:1001A000014BAD1C0C1B09D16D1E58BF01F801CBD2
:1001B000FAD505E014F8016B01F8016B6D1EF9D555
:1001C0009142D6D37047000000230024002500266A
:1001D000103A28BF78C1FBD8520728BF30C148BFAA
:1001E0000B6070471FB51FBD10B510BD00F092F831
:1001F0001146FFF7F7FF02F0A7F900F0B0F803B4DB
:10020000FFF7F2FF03BC02F091F8000009488047B5
:1002100009480047FEE7FEE7FEE7FEE7FEE7FEE7E8
:10022000FEE7FEE7FEE7FEE704480549054A064B00
:1002300070470000991A0008310100089021002041
:10024000902700209023002090230020EFF31080BF
:1002500072B6704780F310887047204C204D25609F
:100260004FF0000484F309881E4C4FF001052570FF
:100270001D4C4FF08055256062B6FEE730B41A4C35
:100280004FF08055256030BC704730B4164C4FF0AD
:100290008055256030BC704700BF72B6EFF309800F
:1002A00028B1203880E8F00F10490968086000B5CF
:1002B0000F4880475DF804EB0E480F490A7802703A
:1002C0000A480E490A680260106890E8F00F203072
:1002D00080F309884EF0040E62B6704720ED00E00E
:1002E0000000FFFF1201002004ED00E018010020D3
:1002F000E90F00080701002008010020200100206C
:10030000704770477047704770470000004870475B
:10031000302100207546FFF7F9FFAE46050069461B
:10032000534620F00700854618B020B5FFF77CFF44
:10033000BDE820404FF000064FF000074FF00008E6
:100340004FF0000B21F00701AC46ACE8C009ACE867
:10035000C009ACE8C009ACE8C0098D467047044646
:10036000AFF300802046FFF74AFF000010B502F00F
:10037000FFF801F05BFF03494FF4165001F05CFBFE
:1003800010BD00004C14002010B51948807818B931
:100390001748C07800B910BD0821164800F054FA7B
:1003A00001280BD10020144908801148007808B9B1
:1003B00001F0E8FF01201149086016E008210D480E
:1003C00000F042FA88B90C480088401C0A490880AD
:1003D00008460088282805DB05480078012801D157
:1003E00001F0AAFF00200549086000BFD3E7000024
:1003F00004000020000C0140020000209401234270
:1004000010B504462078042814D1A0781649487005
:100410000846407828B10A2000F092FD01F0B2FFB2
:1004200020E00020114908800A2000F09DFC01F026
:10043000A9FF17E02078052813D1A0780A4AD168CF
:100440008847E078084A11698847A078064988708B
:10045000E078C87000200549088001200249087032
:1004600000E010BD00BFFCE70400002002000020F7
:1004700000BFFEE77047000010B5012000F05CF8F7
:10048000F0B140200F49086000200F49087000219A
:100490000E4801F075FC01210C4801F042FC0021DE
:1004A0004FF0804001F03DFC00214FF0804001F012
:1004B00067FC0121880701F034FC012000F008F8F6
:1004C00010BD000080E100E0C0000020002C0140D1
:1004D0000149086070470000140401400EB5012175
:1004E000084601F069F90021012001F065F90121B8
:1004F000084601F051F90021062000F0B1F8012072
:10050000019000208DF808000C208DF809000120D2
:100510008DF80A0001A800F01BF806208DF80000F5
:100520000F208DF801008DF8020001208DF80300E6
:10053000684600F0E3F90EBD01460020034A126848
:100540000A400AB1012000E0002070471404014075
:10055000002123498279002A3AD00A4612680368AA
:100560009A430B461A600A1D126803689A430B1DD2
:100570001A60027911440A6803681A430A60184A2B
:100580000832126803689A43154B08331A601A1D23
:10059000126803689A43124B0C331A604279102A8E
:1005A0000ED11A1F126803681A430D4B08331A60E4
:1005B0001A1D126803681A43094B0C331A600DE0C8
:1005C0000749427911440A6803681A430A6005E042
:1005D000027911440A6803689A430A607047000070
:1005E000000401408178012902D1044A116004E02D
:1005F000817811B90021014A116070478081214240
:1006000008B50121080201F0D7F800214FF48070ED
:1006100001F0D2F80121080201F0BEF802210F48D2
:1006200000F01BF90220ADF8000010208DF8030047
:1006300003208DF802006946084800F031F80120D7
:10064000ADF8000048208DF8030003208DF802006B
:100650006946024800F024F808BD0000002001406F
:1006600030B500228B071C0F0F2303FA04F20B4B4B
:100670008C1053F824309343084C8D1044F82530E7
:1006800023468C1053F824308C07240F00FA04F40E
:100690002343024C8D1044F8253030BD0800014042
:1006A0002DE9F04102460025002600200023002409
:1006B000002791F803C00CF00F0591F803C00CF06F
:1006C000100CBCF1000F03D091F802C04CEA0505F4
:1006D00091F800C0BCF1000F31D0146800202BE06D
:1006E0004FF0010C0CFA00F3B1F800C00CEA03065D
:1006F0009E4220D183004FF00F0C0CFA03F7BC434D
:1007000005FA03FC4CEA040491F803C0BCF1280F7D
:1007100006D14FF0010C0CFA00FCC2F814C00AE03C
:1007200091F803C0BCF1480F05D14FF0010C0CFA51
:1007300000FCC2F810C0401C0828D1D31460B1F8E6
:1007400000C0BCF1FF0F34DD546800202EE000F142
:10075000080C4FF0010808FA0CF3B1F800C00CEADD
:1007600003069E4221D183004FF00F0C0CFA03F7D1
:10077000BC4305FA03FC4CEA040491F803C0BCF145
:10078000280F05D100F1080C08FA0CF8C2F8148003
:1007900091F803C0BCF1480F07D100F1080C4FF0ED
:1007A000010808FA0CF8C2F81080401C0828CED3C3
:1007B0005460BDE8F0810000F0B50A460023002433
:1007C0000021002500F00046B6F1004F02D11D4E79
:1007D000F16901E01B4E7168C0F3034583B200F478
:1007E0004016B6F5401F08D121F07061154E7668AD
:1007F00026F07066134F7E6012E000F48016B6F5A6
:10080000801F06D1032606FA05F4A14341F070616A
:1008100006E0460D360103FA06F6B14341F0706179
:1008200022B1460D360103FA06F6314300F00046C8
:10083000B6F1004F02D1034EF16101E0014E71604B
:10084000F0BD0000000001400246002093680B400C
:100850000BB1012000E0002070470161704710B526
:1008600002460023002002E0145C6340401C8842E2
:10087000FAD3184610BD00BFFEE7000008B50121FD
:10088000402000F089FF0121084600F085FF01218A
:100890001448FFF791FF2020ADF8000010208DF8DC
:1008A000030003208DF8020069460F48FFF7F8FEA9
:1008B0000121402000F070FF4020ADF80000102022
:1008C0008DF8030003208DF8020069460648FFF703
:1008D000E7FE20210448FFF7C0FF40210248FFF750
:1008E000BCFF08BD000230000018014010B5FFF742
:1008F000C5FF10BD00BFFEE77047000070B50021C6
:1009000000230F22C47804B3154C246804F4E06477
:10091000C4F5E064210AC1F10403CA40447804FA32
:1009200003F184781440214309010E4C0678A15547
:10093000047804F01F050124AC4005786D11AD006A
:1009400005F1E025C5F8004109E0047804F01F0531
:100950000124AC40044D0678761145F8264070BD60
:100960000CED00E000E400E080E100E0024901431A
:10097000024A1160704700000000FA050CED00E02B
:1009800010B500F013F800F06BFC00F093FC00F0E1
:10099000B3FC00F03BFC00F00DFC00F047FD00F064
:1009A000EBFC00F011FD00F002F810BD704770473D
:1009B00006480078012808D105480078FF2804D2AD
:1009C00003480078401C024908707047120100205B
:1009D0000501002010B500241A480078012830D104
:1009E000FFF734FC04461848007820B11648007818
:1009F000401E1549087014480078F8B9134800786B
:100A0000E0B900F075FD12481249097850F821004C
:100A1000114908600F4800781049097888420DD0C4
:100A20000D480068806B401C0B49096888630C48BE
:100A30000068401C0A490860FFF727FC2046FFF7C2
:100A400009FC10BD12010020050100200601002054
:100A5000C81B002008010020200100200701002001
:100A6000EC00002010B500240B480078012811D1BB
:100A7000FFF7ECFB04460948007840B908480078C5
:100A8000FF2804D206480078401C0549087020461B
:100A9000FFF7E0FB10BD000012010020050100205F
:100AA0000601002010B5002413480078012821D148
:100AB000FFF7CCFB044611480078C0B10F4800781E
:100AC000401E0E4908700846007860B90C4800784E
:100AD00028B92046FFF7BEFB00F0D0FC0AE0204614
:100AE000FFF7B8FB06E02046FFF7B4FB02E0204624
:100AF000FFF7B0FB10BD000012010020060100202E
:100B00000501002010B50B48007890B900F0F0FC0A
:100B1000094800780949087009480749097850F8D8
:100B20002100084908600846006807490860FFF787
:100B300094FB10BD120100200801002007010020D5
:100B4000C81B0020200100201801002010B500243F
:100B5000022000F04BFAFFF779FB044600200B4916
:100B600008602046FFF776FB142000F03FFAFFF7FD
:100B70006DFB0446054800680549086001200549E9
:100B800008702046FFF766FB10BD0000140100202E
:100B9000FC00002004010020704700002DE9FE4FFA
:100BA00006460F4690461C464FF00009FFF74EFBE5
:100BB00081461F48007828B14846FFF74BFB3C2090
:100BC000BDE8FE8F1B4850F8240060BB0120194986
:100BD00041F824004846FFF73DFB002342463946D2
:100BE000304600F05FF982460020009001900346F5
:100BF000024651460290204600F090FC054635B969
:100C00000D48007801280CD100F038FC09E0FFF70E
:100C10001DFB81460020074941F824004846FFF7A4
:100C200019FB2846CCE74846FFF714FB2820C7E706
:100C300005010020C81B0020120100202DE9F04F03
:100C400085B081468A4693461C46DDE90F78129DA1
:100C500000200390FFF7FAFA03902348007830B1A0
:100C60000398FFF7F7FA3C2005B0BDE8F08F1F4866
:100C700050F8240088BB01201C4941F82400039847
:100C8000FFF7E8FA2A464146384600F057FD2B4662
:100C90005A465146484600F005F904901198CDE9AE
:100CA000008002953A4620460E9B049900F036FCDF
:100CB000064636B90E48007801280CD100F0DEFB5C
:100CC00009E0FFF7C3FA03900020084941F8240027
:100CD0000398FFF7BFFA3046C6E7FFE70398FFF730
:100CE000B9FA2820C0E7000005010020C81B002039
:100CF00012010020704770472DE9F04106460F466B
:100D000014464FF000081548007818B112202070E2
:100D1000BDE8F081FFF79AFA8046FF2E03D1104814
:100D2000006890F832600F4850F826502DB94046C0
:100D3000FFF790FA43202070EAE7012D05D14046E5
:100D4000FFF788FA43202070E2E7EF644046FFF7A0
:100D500081FA0020207000BFDAE7000005010020C2
:100D600018010020C81B002070B505460026FFF7BB
:100D70006DFA0646234850F8254024B93046FFF75F
:100D800069FA462070BD012C04D13046FFF762FAA3
:100D90004320F7E794F8300000F0080060B314F83F
:100DA000300F00F0F700207014F83009F8B9E06A4D
:100DB000C8B93434A0781449097808431249087036
:100DC00020781249085C6178084314F834190F4AF6
:100DD00050543046FFF73EFA0D480078012809D1FB
:100DE00000F04CFB06E03046FFF734FA02E03046F4
:100DF000FFF730FA0020C5E73046FFF72BFA442012
:100E0000C0E70000C81B0020090100200A010020E3
:100E100012010020704700002DE9F04707460D46FB
:100E20004FF0000A002028606860FFF70FFA824642
:100E3000FF2F03D11948006890F83270184850F815
:100E400027402CB95046FFF705FA4320BDE8F0874C
:100E5000012C04D15046FFF7FDF94320F6E7207C32
:100E600000F0010020B95046FFF7F4F94520EDE706
:100E70000026D4F80C90D4F808805046FFF7EAF921
:100E800000E0761C58F8041B0029FAD0B000286056
:100E9000A9EB0600800068600020D7E71801002059
:100EA000C81B002070B5044610464FF080750560E1
:100EB000051F28462C606FF00106051F28462E608E
:100EC0004FF01236051F28462E604FF00336051FDF
:100ED00028462E604FF00236051F28462E607610F9
:100EE000051F28462E60051F284629604FF0113641
:100EF000051F28462E604FF01036051F28462E602D
:100F00004FF00936051F28462E604FF00836051FA2
:100F100028462E604FF00736051F28462E604FF0FA
:100F20000636051F28462E604FF00536051F284659
:100F30002E604FF00436051F28462E6070BD00005D
:100F40002DE9F04105464FF00008FFF77FF9804694
:100F5000FF2D05D12048006890F83250012608E0A6
:100F60001D48006890F83200A84201D1012600E037
:100F700000261A4850F825402CB94046FFF76AF978
:100F80004820BDE8F081012C04D14046FFF762F90A
:100F90004320F6E794F834701148C05D94F835109A
:100FA00088430F49C8550846C05D30B994F83610DB
:100FB0000C48007888430B49087094F8300040F0E2
:100FC000080084F830004046FFF744F9012E01D1B3
:100FD00000F054FA0020D4E718010020C81B0020BC
:100FE0000A010020090100207047000070B5054685
:100FF00000261748007800B170BD1648007800B18F
:10100000FAE71DB3FFF722F906461348006890F887
:1010100034401248005D1049096891F83510884342
:101020000E4908550846005D40B90B48006890F825
:1010300036100B4800788843094908700648006854
:10104000C5623046FFF706F900F018FA00BFD3E793
:101050000501002006010020180100200A010020DF
:10106000090100202DE9F04104460D4616461F46B1
:101070001248007810B15520BDE8F0811048007882
:1010800008B13220F8E7B81CC82148434FF47A7100
:10109000B0FBF1F14FF461606043C5EB051200EB6A
:1010A0008200304400EBC00202EB001001EBC008EC
:1010B0004046FFF79BFF0020DEE70000050100200F
:1010C0000601002070B5002600F072F8FFF7BEF8A8
:1010D000064631480068401C2F4908603046FFF73B
:1010E000B9F82E480078012853D12D48007820B156
:1010F000012804D0022809D103E001250BE00025D6
:1011000009E0012501202649087004E0012500209E
:101110002349087000BF00BF05B970BD21480468AD
:1011200033E0FFF793F80646E06A50B3E06A401EEA
:10113000E062E06A28BB94F8300000F0370040B16C
:1011400014F8300F00F0C800207001206070303CAF
:1011500002E0002084F8310094F8300000F008002C
:1011600078B93434A0781049097808430E490870DA
:1011700020780E49085C6178084314F834190B4A4A
:10118000505464693046FFF765F894F832003F2800
:10119000C7D100BFC1E700003001002012010020CC
:1011A0002801002024010020090100200A0100205C
:1011B000704700002DE9F0415021114800F02CF952
:1011C00000250DE0681C86B20D4800EB051400EB0D
:1011D00006170020207067600AA0E060681C85B2D6
:1011E000042DEFD3064800EB05140020207060604A
:1011F00004A0E060024804490860BDE8F0810000F6
:10120000781700203F000000F400002070B5C821CE
:10121000114800F001F900230FE0581C85B203EBE0
:1012200083000D4901EB800405EB850001EB80068E
:10123000002020706660581C83B2092BEDD303EBAD
:101240008300054901EB800400202070606008469F
:101250000249086070BD0000B0160020F0000020B8
:1012600000200A4908600A4908700A4908700A49BA
:1012700008700A4908700A4908600A4908600A4962
:1012800008600A4908600A49087070473001002068
:10129000050100200601002013010020120100209A
:1012A000EC0000201401002000010020FC000020C0
:1012B0000401002000210A4A1170002004E00021EE
:1012C000084A1154411CC8B20828F8D30021064A24
:1012D0001170064A1170064A1160064A1160704783
:1012E000090100200A010020070100200801002058
:1012F000200100201801002070B54FF47C711948BE
:1013000000F08AF84FF48071174800F085F8002447
:1013100013E0601CC5B2C4EBC40000EB40001149EF
:1013200001EB8003C5EBC50000EB400001EB80063C
:101330005E610EA0D864601CC4B20B2CE9D3C4EB70
:10134000C40000EB4000074901EB80030020586116
:1013500006A0D864002006490860024805490860D4
:1013600070BD0000C81C0020C81B00203F0000000A
:10137000240100201C01002000B587B003200021BB
:1013800080220A4BCDE90132CDE903104FF6FF7000
:101390003F23074A00900748FFF750FC06AA06A122
:1013A0003F20FFF7A9FC07B000BD0000C8190020CE
:1013B000C41B00205116000875432F4F532D494977
:1013C0002049646C6500000000B587B0032000214F
:1013D00080220A4BCDE90132CDE903104FF6FE70B1
:1013E0003E23074A00900748FFF728FC06AA06A1FB
:1013F0003E20FFF781FC07B000BD0000C8170020A9
:10140000C41900207916000875432F4F532D494900
:10141000205374617400000004E0002200F8012BE6
:101420004A1E91B20029F8D1704700002DE9F04121
:1014300078211048FFF7F0FF00240DE0601C86B211
:1014400004EB44000B4901EBC00506EB460001EB41
:10145000C0072F60601C84B2042CEFD304EB44005F
:10146000044901EBC00500202860084602490860D5
:10147000BDE8F081B82000202C01002010B5002428
:10148000FEF7E4FE044613480078F8B912480078E5
:10149000E0B900F02DF811481149097850F8210001
:1014A000104908600E4800780F49097888420DD02D
:1014B0000C480068806B401C0A49096888630B4827
:1014C0000068401C09490860FEF7D8FE2046FEF778
:1014D000C1FE10BD0501002006010020C81B002030
:1014E000080100202001002007010020EC0000205E
:1014F0000649074A1278885C0649095C034A515C30
:1015000001EBC001044A117070470000CC260008AE
:10151000090100200A010020080100202DE9F84FF0
:1015200005460F4690469946DDE90AAB002000903B
:10153000FEF78CFE00903F480468002C74D01834ED
:1015400054F8040C3B4908600098FEF783FE44F809
:10155000187CA576002020766076606144F814BC83
:1015600044F80CAC44F8108C0C9824F8080C24F8BF
:10157000069C0020E077E810207705F00700E07671
:10158000217F01208840A077E17E0120884060779C
:1015900000206060E060A0602062A0626062E062A3
:1015A000206325A06063183C002606E0002104F1BA
:1015B000500040F82610701CC6B2002EF6D020460F
:1015C000FFF7EAFA2046FFF795FBFEF73FFE009093
:1015D0001A4840F825401A48006860610020A06160
:1015E0001748006810B11648006884611448046008
:1015F0003434A078134909780843124908702078D8
:101600001149085C6178084314F834190E4A5054A3
:101610000E480078401C0D4908700098FEF71AFE2D
:101620000020BDE8F88FFFE70098FEF713FE422088
:10163000F7E700001C0100203F000000C81B00204D
:1016400024010020090100200A01002013010020CC
:10165000002400BF00BFFEF7F9FD044605480068FE
:10166000401C044908602046FEF7F4FDFFF743FBE9
:10167000F1E7000014010020002400BF02E0282050
:10168000FFF7B4FC194800780028F8D01848006823
:101690006421B0FBF1F0164908600846006828B9DB
:1016A000002014490870FF20FFF74AFC00BFFEF736
:1016B000CDFD0446104800681049086000200E491E
:1016C00008602046FEF7C6FD0C4800680849096816
:1016D000B0FBF1F0C0F1640006490870FFF79AFB17
:1016E00000F00EF81420FFF781FCE0E70401002071
:1016F000FC000020F8000020140100200001002060
:101700007CB5002514E069462846FFF785FB0646B0
:1017100066B9094850F8254044B1012C06D0D4E9F7
:10172000020100EB810060640198A064681CC5B2EE
:101730003F2DE8D97CBD0000C81B002002F001034A
:1017400043B102F002032BB102E0491E002308C09E
:101750000029FAD17047000029B1064AD269024334
:10176000044BDA6104E0034AD2698243014BDA6137
:10177000704700000010024029B1064A1269024376
:10178000044B1A6104E0034A12698243014B1A6157
:10179000704700000010024029B1064A92690243D6
:1017A000044B9A6104E0034A92698243014B9A61B7
:1017B000704700000010024029B1064AD268024377
:1017C000044BDA6004E0034AD2688243014BDA60DA
:1017D000704700000010024030B5002100220024B4
:1017E00000232D4D6D6805F00C0121B1042905D0B1
:1017F000082923D105E0294D056022E0274D056029
:101800001FE0254D6D6805F47012234D6D6805F4D9
:101810008034022505EB92421CB9214D55430560E9
:101820000BE01D4D6D6805F400351DB11C4D554391
:10183000056002E0194D5543056002E0174D056053
:1018400000BF00BF144D6D6805F0F0010909154D8A
:101850006B5C0568DD4045600F4D6D6805F4E06127
:10186000090A104D6B5C4568DD4085600A4D6D6866
:1018700005F46051C90A0B4D6B5C4568DD40C560DD
:10188000054D6D6805F44041890B074D6B5CC568DB
:10189000B5FBF3F5056130BD0010024000127A007F
:1018A00000093D00D8000020E800002070B5044683
:1018B0000D4616460CB9012070BD2088618888420B
:1018C00010DB6EB904F10C01204600F01FFEA06889
:1018D000057004F10801204600F018FE0320EBE734
:1018E0000320E9E72088401C2080A068057004F1EF
:1018F0000801204600F00AFE0020DDE7034603B1A0
:1019000009B9012070470AB90220FBE700201880BE
:101910005A80187119619960D9608818586100203F
:10192000F0E770B504460CB9002070BD208808B9F6
:101930000020FAE72088401E2080E068057804F146
:101940000C01204600F0E2FD2846EEE7704710B596
:1019500000F002F810BD00000CB5002001900090CE
:101960003348006840F480303149086000BF304897
:10197000006800F4003000900198401C019000982D
:1019800018B90198B0F5A06FF1D12948006800F4AA
:10199000003010B10120009001E00020009000987C
:1019A000012843D12348006840F010002149086015
:1019B0000846006820F0030008600846006840F010
:1019C000020008601A4840681949486008464068A3
:1019D00048600846406840F48060486008464068B7
:1019E00020F47C1048600846406840F4E8104860E5
:1019F0000846006840F08070086000BF0C4800682E
:101A000000F000700028F9D00948406820F0030079
:101A1000074948600846406840F00200486000BF3F
:101A20000348406800F00C000828F9D10CBD000004
:101A3000001002400020024070B504460D46FEF73B
:101A4000DFFDFEF74BFD00F057F800F0DFF800F087
:101A500033F970BD042808D14FF0E021096941F045
:101A600004014FF0E022116107E04FF0E021096925
:101A700021F004014FF0E0221161704710B50548D4
:101A80000078012805D1FEF793FFFFF71BFBFEF757
:101A9000A1FF10BD1201002010B51348006840F0EE
:101AA00001001149086008464068104908400E4985
:101AB0004860084600680E4908400B49086008461F
:101AC000006820F4802008600846406820F4FE008A
:101AD00048604FF41F008860FFF739FF4FF0006047
:101AE0000449086010BD0000001002400000FFF82B
:101AF000FFFFF6FE08ED00E01FB50121C802FFF769
:101B00005BFE00214FF40060FFF756FE0121C80282
:101B1000FFF742FE0820ADF808004720ADF80400AA
:101B20000020ADF80A00ADF8060001A90D4800F04C
:101B300029F901210B4800F0F1F80122114609486A
:101B400000F015F919208DF8000000208DF8010033
:101B50008DF8020001208DF803006846FEF7CEFEE6
:101B60001FBD0000002C014010B50121214800F0EC
:101B7000E4F800283DD001211F48FEF765FE044629
:101B8000012C0AD11D491E4A1278881801781D4A75
:101B9000137801229A40114301701A480078401CC2
:101BA000184908700846007808281EDB00200870D5
:101BB00013480078401C124908700120FEF788FC89
:101BC00040201149086000210A4800F0AAF80021CD
:101BD0004FF0804000F0A5F800214FF0804000F069
:101BE000CFF80121880700F09CF80121014800F09E
:101BF00095F810BD002C0140002001404C1600203B
:101C0000C1000020C300002000E100E01FB5012159
:101C10000846FFF7B1FD00210120FFF7ADFD0121CE
:101C20000846FFF799FD40F2E730ADF8080047207D
:101C3000ADF804000020ADF80A00ADF8060001A9D7
:101C40004FF0804000F09EF80121880700F066F810
:101C500001221146900700F08AF81C208DF8000040
:101C600001208DF8010000208DF8020001208DF880
:101C700003006846FEF742FE1FBD000010B50121BB
:101C8000880700F05AF880B10848007848B1074842
:101C900000780749087000200449087001200549B0
:101CA00008700121880700F039F810BDC10000203C
:101CB000C2000020C00000200EB501210220FFF765
:101CC0004BFD4FF6FE70ADF804004720ADF8000064
:101CD0000020ADF80600ADF802006946034800F0A8
:101CE00051F80121014800F01CF80EBD000400402D
:101CF00010B50121074800F029F8012808D1012179
:101D0000044800F00BF804480068401C02490860D1
:101D100010BD000000040040BC000020CA43028245
:101D2000704721B1028842F00102028004E002887B
:101D30004FF6FE731A400280704702460020138A55
:101D40000B400BB1012000E00020704730B5024687
:101D5000002000230024158A05EA0103958905EA7D
:101D6000010413B10CB1012000E0002030BD1AB114
:101D700083890B43838102E083898B43838170478E
:101D800081847047002202881D4B98420ED01D4B63
:101D900098420BD0B0F1804F08D01B4B984205D031
:101DA0001A4B984202D01A4B984204D14FF68F73C7
:101DB0001A404B881A43174B984207D0164B98424B
:101DC00004D04FF6FF431A40CB881A4302808B8819
:101DD00083850B8803850A4B98420BD0094B9842A8
:101DE00008D00E4B984205D00D4B984202D00D4BB7
:101DF000984201D10B7A0386012383827047000049
:101E0000002C014000340140000400400008004064
:101E1000000C004000100040001400400040014051
:101E2000004401400048014010B50024FEF70EFABE
:101E300004460449044800F0CAFB2046FEF70AFAAB
:101E400010BD00007C000020004C004010B50024B4
:101E5000FEF7FCF904460449044800F0B8FB2046AC
:101E6000FEF7F8F910BD00009C0000200050004073
:101E700008B501210420FFF78FFC01218803FFF73B
:101E80008BFC4FF48060ADF8000003208DF8020059
:101E900048208DF8030069460848FEF701FC4FF41E
:101EA0000070ADF8000003208DF8020018208DF8B6
:101EB000030069460148FEF7F3FB08BD0008014036
:101EC00010B50024FEF7C2F904460449044800F0A6
:101ED0007EFB2046FEF7BEF910BD00001C0000206E
:101EE0000038014010B50024FEF7B0F9044604495B
:101EF000044800F06CFB2046FEF7ACF910BD000072
:101F00003C0000200044004010B50024FEF79EF97C
:101F100004460449044800F05AFB2046FEF79AF9AB
:101F200010BD00005C0000200048004021B1828903
:101F300042F40052828104E082894DF6FF731A4018
:101F4000828170477FB505460C4600940020ADF8AD
:101F50000400ADF80600ADF80800ADF80C000C2048
:101F6000ADF80A006946284600F068F8012240F200
:101F70002551284600F03CF801212846FFF7D6FFFE
:101F80007FBD02460020B1F5007F00D100BF13885D
:101F90000B400BB1012000E00020704770B50246F5
:101FA000002400230025002040F66A16B14200D12B
:101FB00000BFC1F3421501F01F03012606FA03F327
:101FC000012D02D19689334006E0022D02D1168AF6
:101FD000334001E0968A33400C12012606FA04F4DD
:101FE0001688344013B10CB1012000E0002070BD10
:101FF000F0B50346002400260025002040F66A17AD
:10200000B94200D100BF1846C1F3421401F01F06C7
:10201000012707FA06F5012C01D10C3004E0022C4F
:1020200001D1103000E014301AB107682F43076067
:1020300002E00768AF430760F0BD00002DE9F047FC
:1020400086B005460E460024A24600BFA1460027E2
:10205000B08900B100BF2F462C8A4CF6FF700440B7
:10206000F08804432C82AC894EF6F3100440B0880B
:1020700031890843718908430443AC81AC8A4FF627
:10208000FF400440B0890443AC8201A8FFF7A4FBE1
:102090001F48874202D1DDF810A001E0DDF80CA056
:1020A000A88900F4004040B10AEBCA0000EB0A1016
:1020B00031684900B0FBF1F807E00AEBCA0000EB19
:1020C0000A1031688900B0FBF1F86420B8FBF0F029
:1020D00004012009642101FB1089A88900F4004053
:1020E00040B1322000EBC900B0FBF1F000F0070076
:1020F000044308E0322000EB09106421B0FBF1F04A
:1021000000F00F0004432C8106B0BDE8F08700000A
:102110000038014001468888C0F308007047C1F3C9
:10212000080282807047000070B53C48008800B902
:1021300070BD6DE03A48007800F0800058BB384828
:10214000007800F0400060B93448FFF7EAFB05462C
:102150006B2D5DD13248007840F040003049087066
:1021600056E02E48FFF7DDFB0546B62D06D12C487C
:10217000007840F080002A49087049E06B2D06D1B4
:102180002748007840F040002549087040E00020D2
:10219000234908703CE02148FFF7C3FB2049097838
:1021A00001F03F011F4A50541D480078401C1C4953
:1021B000087010460078097801F03F01884227D165
:1021C0001748007800F03F00411E1046FEF747FB1D
:1021D0001349097801F03F01491E124A515C8842B7
:1021E00013D100240EE0104810F834000D4949784E
:1021F000884206D10C4800EBC40041680948884772
:1022000002E0641C022CEED300BF002004490870D9
:102210000248008800288DD100BF89E734140020CF
:1022200000000020340B0020BC2600083EB50C48FE
:102230004FF480710B4A4FF41653CDE90021029000
:1022400000220949094800F023F84FF400620849C8
:102250000848FFF753FB04460CB100BFFEE73EBD44
:1022600079220008340A00201C000020711E00089A
:10227000340C00203414002070B50446002221469E
:102280000248FFF713FB054670BD00003414002020
:102290002DE9F04706460C4617469846DDE9095AEF
:1022A000DDF82090B047B5F5805F03D8B9F1000F95
:1022B00000D00DB90025A9462773C4F810902583D6
:1022C00000206083A0836061C4F808A0207900F03A
:1022D0009CF941462068FFF735FEBDE8F08700BF56
:1022E000FEE7000010B509230A4A00210A48FEF75C
:1022F00055FC0C23094A00210948FEF74FFC0A232C
:10230000084A00210848FEF749FC0A20FEF718FE9B
:1023100010BD0000300600202125000830080020F4
:10232000BB250008300A00208525000800BF704743
:10233000704770477047704770B511488478C5780A
:10234000007800B970BD13E00A2000F07BF82CB1D2
:10235000601EC4B20A48C168204688472DB1681E75
:10236000C5B207480169284688470CB905B900E09D
:10237000EAE700BF00200249087000BFE2E7000062
:102380000400002070B500240025164800780128BC
:1023900000D170BD1FE00A2000F054F81148807889
:1023A000A04205DD601CC4B20E48C16820468847C3
:1023B0000C48C078A84205DD681CC5B2094801690F
:1023C0002846884707488078A04204D10548C0784D
:1023D000A84200D100E0DEE700BF012001490870FB
:1023E00000BFD6E70400002010B56FF00400FFF72F
:1023F00031FB104800681049B0FBF1F00F4908703C
:102400000C4800680C49B0FBF1F441F288304443B9
:1024100005200B4908804FF0E020006940F00200E1
:102420004FF0E021086108464461006940F0010076
:10243000086110BDC400002000127A0018000020BE
:102440001A00002070B504460F480078A0B10F486C
:10245000007888B90E480088844206DB0C48008862
:1024600094FBF0F5284600F01DF80948008894FB1D
:10247000F0F100FB114084B24FF47A7104FB01F0DB
:1024800000F016F870BD00001201002005010020C8
:102490001A00002010B5FEF7E5FA10BD10B5FEF7E2
:1024A00001FB10BD10B504462046FEF79FFD10BD90
:1024B0002DE9F047074600264FF0E020D0F81490B1
:1024C0001148007807FB00F800BFFFF7E3FF4FF06B
:1024D000E020856911E04FF0E0208469AC420CD027
:1024E000AC4202D2281B064403E0A9EB04002844B6
:1024F00006442546464500D300E0ECE700BFFFF761
:10250000CDFFBDE8F0870000180000200A68521CCB
:102510000A6043699A4201D102690A60704700006B
:102520000EE04FF4FA73002211461046FEF79AFDB2
:102530000448006808B9012000E000200149086053
:10254000EFE700009801234210B5FDF70FFFFEF7FB
:1025500017FA0423044A00210448FEF71FFBFEF784
:10256000D1FA002010BD0000300300209B25000898
:1025700010B5FFF739FF4FF4A060FEF7F7F9FEF74B
:10258000B5F910BD08E04FF4FA7300221146104669
:10259000FEF768FDFDF7F8FEF5E710B50024FEF73D
:1025A000D5FAFDF753FE0446FFF79CFE0420FEF724
:1025B000C7FC2046FDF74EFE10BD07E00A230022AF
:1025C00011461046FEF74EFDFFF7AEFDF6E770B57B
:1025D00005460C46288800F0200060B1A06838B19C
:1025E0002846FFF797FDC6B23046A168884702E04B
:1025F0002846FFF78FFD40F227712846FFF7CEFCF3
:1026000010B1204600F012F870BD38B50446002025
:102610008DF8020002208DF8020001208DF80300E1
:102620008DF800406846FEF769F938BD10B50446DC
:10263000608BA18B884206D1002240F2277120686E
:10264000FFF7D6FC37E0207B012809D100BF4021ED
:102650002068FFF796FC0028F9D001201649086091
:10266000A38B2269D15C2068FFF759FDA08B401C29
:10267000A083A08B218B884201DB0020A083608B8C
:10268000A18B884217D1207B012809D100BF4021AE
:102690002068FFF776FC0028F9D000200649086082
:1026A000002240F227712068FFF7A2FC606910B198
:1026B00020466169884710BD8081224200000000E9
:1026C0000104000801000000E50500080000010009
:1026D00002000100030001000200010004000100EB
:1026E00002000100030001000200010005000100DA
:1026F00002000100030001000200010004000100CB
:1027000002000100030001000200010006000100B8
:1027100002000100030001000200010004000100AA
:102720000200010003000100020001000500010099
:10273000020001000300010002000100040001008A
:102740000200010003000100020001000700010077
:10275000020001000300010002000100040001006A
:102760000200010003000100020001000500010059
:10277000020001000300010002000100040001004A
:102780000200010003000100020001000600010038
:10279000020001000300010002000100040001002A
:1027A0000200010003000100020001000500010019
:1027B000020001000300010002000100040001000A
:1027C000020001000300010002000100EC270008E4
:1027D00000000020340100006C01000830280008CF
:1027E000340100205C260000C801000851220113BA
:1027F00033231B0831041A35041A370451051C38D9
:102800000140251244031C40261248031C40270A9D
:102810001D4C400A1D50408184A24A0468090102EF
:102820000304060708090C69104C020406D401438E
:040000050800020DE0
:00000001FF
