:020000040800F2
:10000000E023002045010008890500081D050008BF
:100010008505000823030008EF2000080000000009
:100020000000000000000000000000004B1A000863
:100030002703000800000000B70100085D1B00084E
:100040005F0100085F0100085F0100085F01000810
:100050005F0100085F010008290300085F01000834
:100060005F0100085F0100085F0100085F010008F0
:100070005F0100085F0100085F0100085F010008E0
:100080005F0100085F0100085F0100085F010008D0
:100090005F0100085F0100085F010008810300089C
:1000A0005F010008D91B00085F0100085F0100081C
:1000B0007D1C0008B91C00085F0100085F010008F2
:1000C0005F0100085F0100085F0100085F01000890
:1000D0005F010008D51D0008F91D00081D1E00085D
:1000E0005F0100085F0100085F0100085F01000870
:1000F0005F0100085F0100085F0100085F01000860
:100100005F0100085F0100085F0100085F0100084F
:100110003D1D0008611D00085F0100085F01000827
:100120005F0100085F0100085F0100085F0100082F
:10013000DFF80CD000F0B2F800480047F9210008C1
:10014000E02300200648804706480047FEE7FEE718
:10015000FEE7FEE7FEE7FEE7FEE7FEE7FEE7FEE777
:10016000791B000831010008EFF3108072B6704768
:1001700080F310887047204C204D25604FF000041C
:1001800084F309881E4C4FF0010525701D4C4FF07B
:100190008055256062B6FEE730B41A4C4FF08055AA
:1001A000256030BC704730B4164C4FF08055256048
:1001B00030BC704700BF72B6EFF3098028B1203819
:1001C00080E8F00F10490968086000B50F488047C3
:1001D0005DF804EB0E480F490A7802700A480E4990
:1001E0000A680260106890E8F00F203080F30988F8
:1001F0004EF0040E62B6704720ED00E00000FFFFF5
:100200004E00002004ED00E054000020151100080D
:1002100043000020440000205C00002010B5431A79
:10022000934209D28318881803E010F8011D03F8DF
:10023000011D521EF9D210BD40EA01039B0703D0F5
:1002400009E008C9121F08C0042AFAD203E011F815
:10025000013B00F8013B521EF9D210BDD2B201E0C1
:1002600000F8012B491EFBD270470022F6E710B5BB
:1002700013460A4604461946FFF7F0FF204610BD14
:1002800030B504460020034600E05B1C934203D2D5
:10029000E05CCD5C401BF8D030BD0000064C074D43
:1002A00006E0E06840F0010394E807009847103446
:1002B000AC42F6D3FFF740FF80240008A0240008DA
:1002C00070B58C1810F8015B15F0070301D110F818
:1002D000013B2A1106D110F8012B03E010F8016B45
:1002E00001F8016B5B1EF9D12B0705D40023521EC8
:1002F0000DD401F8013BFAE710F8013BCB1A921C30
:1003000003E013F8015B01F8015B521EF9D5A1422D
:10031000D8D3002070BD10B501F08EFF01F08EFE25
:1003200010BD00BFFEE7704710B5012000F040F897
:10033000F0B140200F49086000200F4908700021EB
:100340000E4801F0F8FC01210C4801F0CEFC002120
:100350004FF0804001F0C9FC00214FF0804001F0D7
:10036000EAFC0121880701F0C0FC012000F01AF826
:1003700010BD000080E100E0DC010020002C014005
:1003800010B50024FFF7F0FE0446402000F01CF8F2
:1003900020B1402000F006F800F038F92046FFF7C1
:1003A000E7FE10BD014908607047000014040140D9
:1003B00001460020034A12680A400AB1012000E009
:1003C0000020704714040140014600200022074B22
:1003D0001B6803EA0102054B14331B680B4013B181
:1003E0000AB1012000E00020704700000004014035
:1003F0002DE9F041024600250026002000230024BC
:10040000002791F803C00CF00F0591F803C00CF021
:10041000100CBCF1000F03D091F802C04CEA0505A6
:1004200091F800C0BCF1000F31D0146800202BE01F
:100430004FF0010C0CFA00F3B1F800C00CEA03060F
:100440009E4220D183004FF00F0C0CFA03F7BC43FF
:1004500005FA03FC4CEA040491F803C0BCF1280F30
:1004600006D14FF0010C0CFA00FCC2F814C00AE0EF
:1004700091F803C0BCF1480F05D14FF0010C0CFA04
:1004800000FCC2F810C0401C0828D1D31460B1F899
:1004900000C0BCF1FF0F34DD546800202EE000F1F5
:1004A000080C4FF0010808FA0CF3B1F800C00CEA90
:1004B00003069E4221D183004FF00F0C0CFA03F784
:1004C000BC4305FA03FC4CEA040491F803C0BCF1F8
:1004D000280F05D100F1080C08FA0CF8C2F81480B6
:1004E00091F803C0BCF1480F07D100F1080C4FF0A0
:1004F000010808FA0CF8C2F81080401C0828CED376
:100500005460BDE8F0810246002093680B400BB1B7
:10051000012000E0002070470161704700BFFEE746
:1005200008B50121042001F0DBF90220ADF800003C
:1005300010208DF8030003208DF8020069460E4854
:10054000FFF756FF0121042001F0CAF90420ADF89D
:10055000000010208DF8030003208DF8020069468A
:100560000548FFF745FF02210348FFF7D5FF0421A7
:100570000148FFF7D1FF08BD0008014010B5FFF7A3
:10058000CFFF10BD00BFFEE7704700007FB500251C
:100590001BA103C9CDE900011B480078042807D03E
:1005A00019480078052803D017480078062803D199
:1005B0000325284604B070BD05226946302000F0AE
:1005C00093FA052202A9102000F05CF900240DE046
:1005D00002A8005D1DF80410884205D000200A49D9
:1005E000087002252846E5E7601CC4B2052CEFDB45
:1005F0000548007810B90120034908702846D9E75A
:10060000A5B6C7D8E90000001C01002070B5002580
:10061000072000F05DF904462146272000F08CFAFF
:1006200004F04000E8B120214548FFF71EFE60209D
:1006300000F04EF942499C3981F89B00084690F839
:100640009B209C31612000F01DF93D489C3890F8BA
:100650009B10D0F8BC209C309047FF21E22000F096
:100660006BFA04F0200020B3042035499C3908704F
:10067000084690F89300002814DC48224C31A1F180
:100680001C0001F009F9BF2804D1012000F0B6F8E0
:1006900005460EE000F0E2F90546052028499C39A0
:1006A000087006E000F0DAF90546052024499C3977
:1006B000087004F01000E8B1042021499C3908704A
:1006C00048211F485038FFF7D0FD48221C495039B7
:1006D000A1F11C0001F0E0F8BF2804D1012000F0D6
:1006E0008DF8054606E000F0B9F9054605201449E5
:1006F0009C39087012489C3890F89A0001281CD147
:1007000000200F499C3981F89A0008460078052896
:1007100013D048224C31A1F11C0001F0BDF8BF28D4
:1007200004D1012000F06AF8054606E000F096F9D1
:100730000546052002499C390870284670BD000016
:10074000B801002070B5044600252B48007858B148
:1007500029480078012807D027480078022803D0CC
:1007600025480078062805D100F0F0F8054645B187
:10077000284670BD20480078052802D10625284665
:10078000F7E71D49C868804705221B49943130208E
:1007900000F0AAF9012C16D10522174994312A201C
:1007A00000F0A2F90121222000F0C6F90121212048
:1007B00000F0C2F904213D2000F0BEF901213C20E7
:1007C00000F0BAF903E001213D2000F0B5F9152150
:1007D000242000F0B1F90E21202000F0ADF9FF2116
:1007E000E12000F0A9F90449886880470420024903
:1007F00008702846BDE700001C01002070B50446C3
:1008000000251F480078032805D000F09FF8054612
:100810000DB1284670BD072000F05AF80646314653
:10082000272000F089F91649C86880470522144935
:10083000491C2A2000F058F90121222000F07CF9FF
:10084000012C0BD10121212000F076F904213D205B
:1008500000F072F901213C2000F06EF920213120D6
:1008600000F06AF90F21202000F066F9FF21E22054
:1008700000F062F90249886880472846CAE700000C
:100880001C0100202DE9F04107460D4616460F4990
:10089000086980470D49086A80470C498869804784
:1008A0000A48816A38468847002405E00749486AB3
:1008B00080472855601CC4B2B442F7DB0349C869BD
:1008C0008047024948698047BDE8F0811C0100204B
:1008D00070B504460C49086980470B49086A80478F
:1008E0000949886980470848816A2046884706493F
:1008F000486A804705460449C869804702494869F3
:100900008047284670BD00001C01002010B500245F
:100910000D48007828B9FFF739FE04465CB120463F
:1009200010BD09480078042805D100F00FF80446EE
:100930000CB12046F4E70821202000F0FDF8022049
:10094000014908702046EBE71C01002070B5002427
:100950002448007838B123480078012803D0214882
:10096000007802280AD1FFF7D1FF04460CB12046D7
:1009700070BD0A21202000F0DFF812E0194800784D
:10098000042803D017480078062803D11549C86801
:10099000804706E013480078052802D10624204647
:1009A000E6E7FF21E12000F0C7F8FF21E22000F098
:1009B000C3F80720FFF78CFF05462946272000F0E3
:1009C000BBF80321232000F0B7F82821252000F0F0
:1009D000B3F80F21262000F0AFF80320014908707A
:1009E0002046C5E71C0100202DE9F04104460D46D4
:1009F00016461F464FF000081748007804280BD110
:100A00000522294614489430FFF73AFC20B91248D1
:100A100090F89900A04212D00F48803029684161B7
:100A200029790176803880F899402046FFF78AFEC0
:100A30008046B8F1000F02D04046BDE8F08106497B
:100A4000C86880473A463146A02000F04DF8024978
:100A5000886880474046F0E71C01002070B50024FC
:100A6000204890F89300002817DD1E4890F8930066
:100A7000202812DC1B4991F8933091F892505231A2
:100A80006A18523991F84C004D31FFF7ADFF28BB81
:100A90000021144880F8931022E0124890F8930047
:100AA00020281CDD0F4991F8923052315A185239E2
:100AB00091F84C0020234D31FFF796FF70B909489B
:100AC00090F893002038C1B2064880F8931090F84F
:100AD00092002030C1B2034880F8921000E0012457
:100AE000204670BD1C0100202DE9F04107460C4650
:100AF00015461049086980470E49086A80470D4924
:100B0000886980470B48816A38468847002606E096
:100B100014F8010B074A916A8847701CC6B2AE42AE
:100B2000F6DB0449C8698047024948698047BDE847
:100B3000F08100001C01002070B505460C460C49F0
:100B4000086980470A49086A8047094988698047D7
:100B50000748816A284688470548816A20468847B1
:100B60000349C869804702494869804770BD000051
:100B70001C01002070B5002100230F22C47804B3AB
:100B8000154C246804F4E064C4F5E064210AC1F162
:100B90000403CA40447804FA03F1847814402143E2
:100BA00009010E4C0678A155047804F01F050124B4
:100BB000AC4005786D11AD0005F1E025C5F80041A8
:100BC00009E0047804F01F050124AC40044D0678C8
:100BD000761145F8264070BD0CED00E000E400E021
:100BE00080E100E002490143024A116070470000C1
:100BF0000000FA050CED00E010B500F013F800F06D
:100C0000C5FB00F0EDFB00F00DFC00F095FB00F0E3
:100C100067FB00F0A1FC00F045FC00F06BFC00F06D
:100C200002F810BD7047704706480078012808D1C7
:100C300005480078FF2804D203480078401C024988
:100C4000087070474E0000204100002010B50024BD
:100C50001A480078012830D1FFF786FA0446184870
:100C6000007820B116480078401E154908701448D5
:100C70000078F8B913480078E0B900F0CFFC1248CA
:100C80001249097850F82100114908600F4800788E
:100C90001049097888420DD00D480068806B401CCF
:100CA0000B49096888630C480068401C0A490860C1
:100CB000FFF779FA2046FFF75BFA10BD4E000020DF
:100CC0004100002042000020F806002044000020DF
:100CD0005C000020430000202800002010B50B48D5
:100CE000007890B900F09AFC09480078094908702A
:100CF00009480749097850F8210008490860084662
:100D0000006807490860FFF736FA10BD4E00002062
:100D10004400002043000020F80600205C00002072
:100D20005400002010B50024022000F0F5F9FFF770
:100D30001BFA044600200B4908602046FFF718FA0A
:100D4000142000F0E9F9FFF70FFA0446054800689F
:100D5000054908600120054908702046FFF708FA98
:100D600010BD00005000002038000020400000208E
:100D7000704700002DE9FE4F06460F4690461C4680
:100D80004FF00009FFF7F0F981461F48007828B1BD
:100D90004846FFF7EDF93C20BDE8FE8F1B4850F8B0
:100DA000240060BB0120194941F824004846FFF7A0
:100DB000DFF9002342463946304600F009F9824601
:100DC00000200090019003460246514602902046C2
:100DD00000F03AFC054635B90D48007801280CD1E1
:100DE00000F0E2FB09E0FFF7BFF981460020074968
:100DF00041F824004846FFF7BBF92846CCE74846AF
:100E0000FFF7B6F92820C7E741000020F8060020C8
:100E10004E0000202DE9F04F85B081468A4693466A
:100E20001C46DDE90F78129D00200390FFF79CF926
:100E300003902348007830B10398FFF799F93C20DC
:100E400005B0BDE8F08F1F4850F8240088BB012092
:100E50001C4941F824000398FFF78AF92A464146C5
:100E6000384600F001FD2B465A465146484600F0F0
:100E7000AFF804901198CDE9008002953A462046DB
:100E80000E9B049900F0E0FB064636B90E48007848
:100E900001280CD100F088FB09E0FFF765F9039009
:100EA0000020084941F824000398FFF761F9304613
:100EB000C6E7FFE70398FFF75BF92820C0E70000CB
:100EC00041000020F80600204E00002070477047C7
:100ED0002DE9F04106460F4614464FF0000815482C
:100EE000007818B112202070BDE8F081FFF73CF9BE
:100EF0008046FF2E03D11048006890F832600F48FA
:100F000050F826502DB94046FFF732F943202070A3
:100F1000EAE7012D05D14046FFF72AF9432020706A
:100F2000E2E7EF644046FFF723F90020207000BF9E
:100F3000DAE700004100002054000020F8060020FD
:100F4000704700002DE9F04707460D464FF0000AB4
:100F5000002028606860FFF707F98246FF2F03D161
:100F60001948006890F83270184850F827402CB99A
:100F70005046FFF7FDF84320BDE8F087012C04D16F
:100F80005046FFF7F5F84320F6E7207C00F001001B
:100F900020B95046FFF7ECF84520EDE70026D4F8DD
:100FA0000C90D4F808805046FFF7E2F800E0761C79
:100FB00058F8041B0029FAD0B0002860A9EB0600FD
:100FC000800068600020D7E754000020F806002069
:100FD00070B5044610464FF080750560051F284621
:100FE0002C606FF00106051F28462E604FF0123668
:100FF000051F28462E604FF00336051F28462E6039
:101000004FF00236051F28462E607610051F284631
:101010002E60051F284629604FF01136051F28460F
:101020002E604FF01036051F28462E604FF009360F
:10103000051F28462E604FF00836051F28462E60F3
:101040004FF00736051F28462E604FF00636051F65
:1010500028462E604FF00536051F28462E604FF0BB
:101060000436051F28462E6070BD00002DE9F041B2
:1010700005464FF00008FFF777F88046FF2D05D1B1
:101080002048006890F83250012608E01D480068AA
:1010900090F83200A84201D1012600E000261A484B
:1010A00050F825402CB94046FFF762F84820BDE8CB
:1010B000F081012C04D14046FFF75AF84320F6E7AF
:1010C00094F834701148C05D94F8351088430F4986
:1010D000C8550846C05D30B994F836100C48007801
:1010E00088430B49087094F8300040F0080084F8F9
:1010F00030004046FFF73CF8012E01D100F054FAD1
:101100000020D4E754000020F8060020460000200C
:10111000450000207047000070B5054600261748BE
:10112000007800B170BD1648007800B1FAE71DB331
:10113000FFF71AF806461348006890F83440124842
:10114000005D1049096891F8351088430E4908552B
:101150000846005D40B90B48006890F836100B480F
:10116000007888430949087006480068C56230461F
:10117000FEF7FEFF00F018FA00BFD3E741000020A1
:1011800042000020540000204600002045000020BE
:101190002DE9F04104460D4616461F4612480078D8
:1011A00010B15520BDE8F0811048007808B1322018
:1011B000F8E7B81CC82148434FF47A71B0FBF1F14D
:1011C0004FF461606043C5EB051200EB82003044D0
:1011D00000EBC00202EB001001EBC0084046FFF735
:1011E0009BFF0020DEE700004100002042000020BD
:1011F00070B5002600F072F8FEF7B6FF06463148DB
:101200000068401C2F4908603046FEF7B1FF2E48A9
:101210000078012853D12D48007820B1012804D04E
:10122000022809D103E001250BE0002509E0012592
:1012300001202649087004E0012500202349087098
:1012400000BF00BF05B970BD2148046833E0FEF758
:101250008BFF0646E06A50B3E06A401EE062E06A37
:1012600028BB94F8300000F0370040B114F8300F7C
:1012700000F0C800207001206070303C02E00020C7
:1012800084F8310094F8300000F0080078B9343464
:10129000A0781049097808430E49087020780E4953
:1012A000085C6178084314F834190B4A5054646997
:1012B0003046FEF75DFF94F832003F28C7D100BFEB
:1012C000C1E700006C0000204E00002064000020F8
:1012D000600000204500002046000020704700000C
:1012E0002DE9F0415021114800F02CF900250DE0C6
:1012F000681C86B20D4800EB051400EB06170020B1
:10130000207067600AA0E060681C85B2042DEFD3EE
:10131000064800EB051400202070606004A0E06027
:10132000024804490860BDE8F0810000A8020020DE
:101330003F0000003000002070B5C821114800F0C7
:1013400001F900230FE0581C85B203EB83000D491F
:1013500001EB800405EB850001EB80060020207086
:101360006660581C83B2092BEDD303EB830005495B
:1013700001EB80040020207060600846024908608C
:1013800070BD0000E00100202C00002000200A4970
:1013900008600A4908700A4908700A4908700A4931
:1013A00008700A4908600A4908600A4908600A4941
:1013B00008600A49087070476C0000204100002056
:1013C000420000204F0000204E0000202800002096
:1013D000500000203C000020380000204000002089
:1013E00000210A4A1170002004E00021084A11542B
:1013F000411CC8B20828F8D30021064A1170064AD9
:101400001170064A1160064A1160704745000020BD
:101410004600002043000020440000205C00002023
:101420005400002070B54FF47C71194800F08AF820
:101430004FF48071174800F085F8002413E0601C19
:10144000C5B2C4EBC40000EB4000114901EB8003BE
:10145000C5EBC50000EB400001EB80065E610EA00D
:10146000D864601CC4B20B2CE9D3C4EBC40000EBFD
:101470004000074901EB80030020586106A0D864B2
:1014800000200649086002480549086070BD000058
:10149000F8070020F80600203F0000006000002050
:1014A0005800002000B587B00320002180220A4B9D
:1014B000CDE90132CDE903104FF6FF703F23074A13
:1014C00000900748FFF7A6FC06AA06A13F20FFF7F9
:1014D000FFFC07B000BD0000F8040020F406002067
:1014E0007D17000875432F4F532D49492049646CDF
:1014F0006500000000B587B00320002180220A4B60
:10150000CDE90132CDE903104FF6FE703E23074AC4
:1015100000900748FFF77EFC06AA06A13E20FFF7D1
:10152000D7FC07B000BD0000F8020020F404002042
:10153000A517000875432F4F532D49492053746157
:101540007400000004E0002200F8012B4A1E91B252
:101550000029F8D1704700002DE9F04178211048AA
:10156000FFF7F0FF00240DE0601C86B204EB44009E
:101570000B4901EBC00506EB460001EBC0072F60ED
:10158000601C84B2042CEFD304EB4400044901EB4B
:10159000C00500202860084602490860BDE8F081C7
:1015A000E80B00206800002010B50024FEF7DCFDE9
:1015B000044613480078F8B912480078E0B900F002
:1015C0002DF811481149097850F821001049086098
:1015D0000E4800780F49097888420DD00C48006801
:1015E000806B401C0A49096888630B480068401CEE
:1015F00009490860FEF7D0FD2046FEF7B9FD10BD91
:101600004100002042000020F80600204400002095
:101610005C00002043000020280000200649074A03
:101620001278885C0649095C034A515C01EBC001F1
:10163000044A117070470000802300084500002014
:1016400046000020440000202DE9F84F05460F46D3
:1016500090469946DDE90AAB00200090FEF784FD34
:1016600000903F480468002C74D0183454F8040CDF
:101670003B4908600098FEF77BFD44F8187CA5768E
:10168000002020766076606144F814BC44F80CAC0D
:1016900044F8108C0C9824F8080C24F8069C0020C0
:1016A000E077E810207705F00700E076217F012041
:1016B0008840A077E17E012088406077002060604C
:1016C000E060A0602062A0626062E062206325A00A
:1016D0006063183C002606E0002104F1500040F849
:1016E0002610701CC6B2002EF6D02046FFF740FB35
:1016F0002046FFF7EBFBFEF737FD00901A4840F855
:1017000025401A48006860610020A0611748006801
:1017100010B1164800688461144804603434A0781D
:101720001349097808431249087020781149085C68
:101730006178084314F834190E4A50540E48007862
:10174000401C0D4908700098FEF712FD0020BDE80E
:10175000F88FFFE70098FEF70BFD4220F7E7000047
:10176000580000203F000000F80600206000002024
:1017700045000020460000204F000020002400BF4C
:1017800000BFFEF7F1FC044605480068401C044910
:1017900008602046FEF7ECFCFFF799FBF1E700003C
:1017A00050000020002400BF02E02820FFF7B4FC16
:1017B000194800780028F8D0184800686421B0FB68
:1017C000F1F0164908600846006828B9002014495D
:1017D0000870FF20FFF74AFC00BFFEF7C5FC044677
:1017E000104800681049086000200E490860204633
:1017F000FEF7BEFC0C48006808490968B0FBF1F030
:10180000C0F1640006490870FFF79AFB00F00EF87B
:101810001420FFF781FCE0E74000002038000020A2
:1018200034000020500000203C0000207CB5002542
:1018300014E069462846FFF785FB064666B9094865
:1018400050F8254044B1012C06D0D4E9020100EB48
:10185000810060640198A064681CC5B23F2DE8D97E
:101860007CBD0000F806002002F0010343B102F045
:1018700002032BB102E0491E002308C00029FAD15F
:101880007047836802699A4202D14268026102E0AD
:1018900002690A44026170472DE9F04104460D4691
:1018A000164600272078012802D00120BDE8F081EB
:1018B000204600F081FC07467FB932462846216960
:1018C000FEF7ACFC31462069FEF7CFFC31462046DE
:1018D000FFF7D7FFA069401EA0613846E6E7000089
:1018E00029B1064A92690243044B9A6104E0034A13
:1018F00092698243014B9A617047000000100240D8
:1019000030B500210022002400232D4D6D6805F024
:101910000C0121B1042905D0082923D105E0294D66
:10192000056022E0274D05601FE0254D6D6805F438
:101930007012234D6D6805F48034022505EB924248
:101940001CB9214D554305600BE01D4D6D6805F434
:1019500000351DB11C4D5543056002E0194D55433E
:10196000056002E0174D056000BF00BF144D6D68B3
:1019700005F0F0010909154D6B5C0568DD40456017
:101980000F4D6D6805F4E061090A104D6B5C456808
:10199000DD4085600A4D6D6805F46051C90A0B4D44
:1019A0006B5C4568DD40C560054D6D6805F44041E0
:1019B000890B074D6B5CC568B5FBF3F5056130BD60
:1019C0000010024000127A0000093D0014000020BF
:1019D0002400002070B504460D4616460CB90120BF
:1019E00070BD20886188884210DB6EB904F10C015B
:1019F000204600F0C9FBA068057004F108012046EC
:101A000000F0C2FB0320EBE70320E9E72088401C3D
:101A10002080A068057004F10801204600F0B4FBA6
:101A20000020DDE7034603B109B9012070470AB978
:101A30000220FBE7002018805A8018711961996014
:101A4000D960881858610020F0E7704710B500F0A1
:101A500001F810BD0CB500200190009033480068DB
:101A600040F480303149086000BF3048006800F41D
:101A7000003000900198401C0190009818B901981E
:101A8000B0F5A06FF1D12948006800F4003010B122
:101A90000120009001E0002000900098012843D12F
:101AA0002348006840F0100021490860084600689B
:101AB00020F0030008600846006840F0020008605B
:101AC0001A48406819494860084640684860084616
:101AD000406840F4806048600846406820F47C100C
:101AE00048600846406840F4E810486008460068CE
:101AF00040F08070086000BF0C48006800F0007083
:101B00000028F9D00948406820F0030007494860E0
:101B10000846406840F00200486000BF0348406843
:101B200000F00C000828F9D10CBD000000100240A4
:101B300000200240042808D14FF0E021096941F05B
:101B400004014FF0E022116107E04FF0E021096944
:101B500021F004014FF0E0221161704710B50548F3
:101B60000078012805D1FFF75FF8FFF741FBFFF789
:101B70006DF810BD4E00002010B51348006840F00D
:101B800001001149086008464068104908400E49A4
:101B90004860084600680E4908400B49086008463E
:101BA000006820F4802008600846406820F4FE00A9
:101BB00048604FF41F008860FFF748FF4FF0006057
:101BC0000449086010BD0000001002400000FFF84A
:101BD000FFFFF6FE08ED00E010B50121214800F0FE
:101BE00090F800283DD001211F48FEF78CFC0446E8
:101BF000012C0AD11D491E4A1278881801781D4A05
:101C0000137801229A40114301701A480078401C51
:101C1000184908700846007808281EDB0020087064
:101C200013480078401C124908700120FEF7BAFBE7
:101C300040201149086000210A4800F056F80021B0
:101C40004FF0804000F051F800214FF0804000F04C
:101C500072F80121880700F048F80121014800F0DE
:101C600041F810BD002C014000200140781F0020E9
:101C7000DD010020DF01002000E100E010B50121BE
:101C8000880700F03EF880B10848007848B107485E
:101C900000780749087000200449087001200549B0
:101CA00008700121880700F01DF810BDDD0100203B
:101CB000DE010020DC01002010B50121074800F002
:101CC00029F8012808D10121044800F00BF8044844
:101CD0000068401C0249086010BD0000000400407C
:101CE00018010020CA430282704721B1028842F0E5
:101CF0000102028004E002884FF6FE731A4002805F
:101D0000704702460020138A0B400BB1012000E00F
:101D10000020704730B50246002000230024158AB9
:101D200005EA0103958905EA010413B10CB101200C
:101D300000E0002030BD81847047000010B5002411
:101D4000FEF712FA04460449044800F0A1FA2046BE
:101D5000FEF70EFA10BD0000D8000020004C004035
:101D600010B50024FEF700FA04460449044800F0C8
:101D70008FFA2046FEF7FCF910BD0000F8000020A5
:101D80000050004008B501210420FFF7A9FD012102
:101D90008803FFF7A5FD4FF48060ADF80000032035
:101DA0008DF8020048208DF8030069460848FEF7C8
:101DB0001FFB4FF40070ADF8000003208DF8020007
:101DC00018208DF8030069460148FEF711FB08BD95
:101DD0000008014010B50024FEF7C6F90446044986
:101DE000044800F055FA2046FEF7C2F910BD000085
:101DF000780000200038014010B50024FEF7B4F947
:101E000004460449044800F043FA2046FEF7B0F9BE
:101E100010BD0000980000200044004010B50024D0
:101E2000FEF7A2F904460449044800F031FA2046BE
:101E3000FEF79EF910BD0000B800002000480040E9
:101E400021B1828942F40052828104E082894DF6F8
:101E5000FF731A40828170477FB505460C46009497
:101E60000020ADF80400ADF80600ADF80800ADF8AC
:101E70000C000C20ADF80A006946284600F068F80E
:101E8000012240F22551284600F03CF80121284665
:101E9000FFF7D6FF7FBD02460020B1F5007F00D1DD
:101EA00000BF13880B400BB1012000E000207047F9
:101EB00070B50246002400230025002040F66A1673
:101EC000B14200D100BFC1F3421501F01F0301264A
:101ED00006FA03F3012D02D19689334006E0022D64
:101EE00002D1168A334001E0968A33400C12012653
:101EF00006FA04F41688344013B10CB1012000E056
:101F0000002070BDF0B50346002400260025002007
:101F100040F66A17B94200D100BF1846C1F3421417
:101F200001F01F06012707FA06F5012C01D10C303C
:101F300004E0022C01D1103000E014301AB107681F
:101F40002F43076002E00768AF430760F0BD000061
:101F50002DE9F04786B005460E460024A24600BF94
:101F6000A1460027B08900B100BF2F462C8A4CF64D
:101F7000FF700440F08804432C82AC894EF6F310C5
:101F80000440B08831890843718908430443AC8117
:101F9000AC8A4FF6FF400440B0890443AC8201A8EC
:101FA000FFF7AEFC1F48874202D1DDF810A001E028
:101FB000DDF80CA0A88900F4004040B10AEBCA008B
:101FC00000EB0A1031684900B0FBF1F807E00AEBBA
:101FD000CA0000EB0A1031688900B0FBF1F86420F8
:101FE000B8FBF0F004012009642101FB1089A889E5
:101FF00000F4004040B1322000EBC900B0FBF1F02A
:1020000000F00700044308E0322000EB09106421CF
:10201000B0FBF1F000F00F0004432C8106B0BDE8E6
:10202000F08700000038014001468888C0F30800AE
:102030007047C1F308028280704700003EB50C482B
:102040004FF480710B4A4FF41653CDE900210290F2
:1020500000220949094800F023F84FF400620849BA
:102060000848FFF7DFFC04460CB100BFFEE73EBDA9
:10207000892000086015002078000020851D0008D8
:1020800060170020601F002070B504460022214622
:102090000248FFF79FFC054670BD0000601F00204E
:1020A0002DE9F04706460C4617469846DDE9095AE1
:1020B000DDF82090B047B5F5805F03D8B9F1000F87
:1020C00000D00DB90025A9462773C4F810902583C8
:1020D00000206083A0836061C4F808A0207900F02C
:1020E000F5F841462068FFF7B7FEBDE8F08700BF6E
:1020F000FEE7000010B50923024A00210248FEF75E
:1021000039FE10BD5C110020C521000802E008C89E
:10211000121F08C1002AFAD170477047002001E061
:1021200001C1121F002AFBD17047000010B56FF0EB
:102130000400FFF7FFFC104800681049B0FBF1F005
:102140000F4908700C4800680C49B0FBF1F441F2EB
:102150008830444305200B4908804FF0E020006997
:1021600040F002004FF0E021086108464461006938
:1021700040F00100086110BD0000002000127A004C
:1021800074000020760000200A68521C0A6043692F
:102190009A4201D102690A607047000000BF054AF7
:1021A000128802F04002002AF9D0C2B2014B1B1D76
:1021B0001A80704700380140014600208A6902B940
:1021C000BF20704710E00023012219461846FEF791
:1021D000DFFF0648006808B9012000E0002003493D
:1021E000086003A000F032F8EDE70000840121420E
:1021F00068656C6C6F00000010B5FEF78CF8FEF798
:10220000FBFC0423044A00210448FEF7B3FDFEF75B
:1022100065FD002010BD00005C0E0020712200084A
:1022200070477047704770477047704770477047F6
:10223000002070477047704710B5FFF777FF4FF4E5
:10224000A060FEF7CFFCFEF799F910BD10B504466B
:1022500001E0FFF7A3FF14F8010B04490028F8D1AF
:10226000BDE810400A20FFF799BF00007000002071
:1022700010B50024FEF756FDFDF776FF0446FFF784
:1022800039FF0420FEF7F2FE2046FDF771FF10BD76
:1022900070B505460C46288800F0200060B1A068A3
:1022A00038B12846FFF7C0FEC6B23046A16888475D
:1022B00002E02846FFF7B8FE40F227712846FFF7F4
:1022C000F7FD10B1204600F013F870BD38B5044694
:1022D00000208DF8020002208DF8020001208DF808
:1022E00003008DF800406846FEF744FC38BD00004E
:1022F00010B50446608BA18B884206D1002240F2C3
:1023000027712068FFF7FEFD37E0207B012809D107
:1023100000BF40212068FFF7BEFD0028F9D0012052
:1023200016490860A38B2269D15C2068FFF781FE03
:10233000A08B401CA083A08B218B884201DB002056
:10234000A083608BA18B884217D1207B012809D103
:1023500000BF40212068FFF79EFD0028F9D0002033
:1023600006490860002240F227712068FFF7CAFD85
:10237000606910B120466169884710BD80812242A2
:102380000000010002000100030001000200010042
:10239000040001000200010003000100020001002E
:1023A000050001000200010003000100020001001D
:1023B000040001000200010003000100020001000E
:1023C00006000100020001000300010002000100FC
:1023D00004000100020001000300010002000100EE
:1023E00005000100020001000300010002000100DD
:1023F00004000100020001000300010002000100CE
:1024000007000100020001000300010002000100BA
:1024100004000100020001000300010002000100AD
:10242000050001000200010003000100020001009C
:10243000040001000200010003000100020001008D
:10244000060001000200010003000100020001007B
:10245000040001000200010003000100020001006D
:10246000050001000200010003000100020001005C
:10247000040001000200010003000100020001004D
:10248000A024000800000020E0010000C0020008B5
:1024900000250008E0010020002200001C210008A7
:1024A0001184A24A04680901020304060708090C02
:1024B0006910055102040608051C38014025124424
:1024C000031C40261248031C40270A1D4C400A1DCD
:1024D0005040412634431010011323221B082104CD
:1024E0001A25041A27041A2B041A29041A35041A67
:1024F00031041A37041A2D04018C5A2F9000000061
:0400000508000145A9
:00000001FF
